:020000040000FA
:10000000201420206D010000710100007301000028
:1000100000000000000000000000000000000000E0
:10002000000000000000000000000000750100005A
:10003000000000000000000077010000D117000060
:100040007B0100007B0100007B0100007B010000C0
:10005000A91400007B0100007B0100007B0100006F
:10006000000000007B0100007B0100000000000098
:10007000000000007B0100007B0100007B0100000C
:100080007B0100007B0100007B0100007B01000080
:100090007B0100007B010000000000000000000068
:1000A0007B0100007B010000000000000000000058
:1000B0007B010000000000007B0100007B010000CC
:1000C00000F002F800F042F812A030C808382418F6
:1000D0002D18AC4201D100F039F80FCCA246AB4646
:1000E0000CA730CF2D1B083F3F197C427F1E544484
:1000F0002D090426F441641EAC4201D300F026F819
:100100000126334200D0FB1A3343984754465D46DC
:10011000DFE70000DC4F0000EC4F000000000000B3
:100120007047000000000000002300240025002686
:10013000103A01D378C1FBD8520700D330C100D5A3
:100140000B6070471FB51FBD10B510BD01F02EF933
:100150001146FFF7F7FF03F031FB01F046F903B456
:10016000FFF7F2FF03BC01F097F9000006480047D3
:10017000FEE7FEE7FEE7FEE7FEE7FEE70348044989
:10018000024A044B70470000C100000020132020E9
:100190002014202020132020002203098B4273D337
:1001A000030A8B4258D3030B8B423CD3030C8B4284
:1001B00021D312E003460B437FD4002243088B4235
:1001C00074D303098B425FD3030A8B4244D3030BDE
:1001D0008B4228D3030C8B420DD30902FF2212BAA3
:1001E000030C8B4202D31212090265D0030B8B421F
:1001F00019D300E0090AC30B8B4201D3CB03C01A09
:100200005241830B8B4201D38B03C01A5241430BE3
:100210008B4201D34B03C01A5241030B8B4201D3D3
:100220000B03C01A5241C30A8B4201D3CB02C01A3E
:100230005241830A8B4201D38B02C01A5241430AB6
:100240008B4201D34B02C01A5241030A8B4201D3A5
:100250000B02C01A5241CDD2C3098B4201D3CB014C
:10026000C01A524183098B4201D38B01C01A5241FB
:1002700043098B4201D34B01C01A524103098B42FF
:1002800001D30B01C01A5241C3088B4201D3CB00EA
:10029000C01A524183088B4201D38B00C01A5241CD
:1002A00043088B4201D34B00C01A5241411A00D27D
:1002B00001465241104670475DE0CA0F00D04942E6
:1002C000031000D3404253409C46002203098B4256
:1002D0002DD3030A8B4212D38901FC2212BA030ADE
:1002E0008B420CD3890192118B4208D38901921160
:1002F0008B4204D389013AD0921100E08909C309E5
:100300008B4201D3CB01C01A524183098B4201D3E6
:100310008B01C01A524143098B4201D34B01C01AD1
:10032000524103098B4201D30B01C01A5241C30849
:100330008B4201D3CB00C01A524183088B4201D3B8
:100340008B00C01A5241D9D243088B4201D34B00D3
:10035000C01A5241411A00D201465241104663462A
:100360005B1001D34042002B00D5494270476346E1
:100370005B1000D3404201B50449002802DC491C4F
:10038000084000E00846C046C04602BDFFFFFF7FB0
:1003900070477047704700000246C80FC00781438E
:1003A0004B0030B54B405B009B0D20D01923DB0682
:1003B000C91801231B05994220DB0324A407042547
:1003C0001346AB400BD3002B04D1EB0613409B002C
:1003D000E34204D401246407002312195941FF2386
:1003E0001B0599420BD2C9000143500F09E0CB0213
:1003F00004D501430803024305D0054830BDFF2161
:10040000C905084330BD084607210905884330BDAA
:100410000000C07FF0B50C46871A9C410D46861A35
:100420009D4103D2C01BA141D21963410D0D1F0D87
:10043000C94EEC1BAE435CD07F057F0D0026002F1C
:1004400051D02D05AC46A943DD020123ED0A1B0561
:100450001D4320231B1B24D41746E7403818714145
:100460002F46E740CC199D402818314661410C0DBC
:1004700027D161449A4013D50023401C59415200B2
:100480000ED14008400001224B005205D34207D351
:1004900005204007C14201D5B04900E0B0493046CF
:1004A000F0BD6B00002A00D001229A181F23203CC7
:1004B0001B1B01D5002302E0E540281871410C0DFB
:1004C000D7D0012424050919C407CD0740084908DD
:1004D000E40F28436144002CD5D00024401C614126
:1004E0009A40D0D1CDE76A05520DD9D1C90FC907BD
:1004F000D5E79C4D4E00002801D0012400E00024E7
:1005000034195F00002A01D0012600E00026BE1940
:10051000954FAC420CD8AE420AD8B44206D0012561
:100520006D05EC42BCD010461946F0BD9942FCD096
:1005300000203946F0BDF0B51FB40C460F46811AB5
:100540009F412546861A9D4106D20125ED076F4041
:10055000401ABC4152187B41210D1E0D8D1BAC462B
:100560007D4D8D437ED075056D0D7CD00D05AE465D
:10057000AC431B031B0B794D52429D412023664621
:100580009B1B14D31746F74038180026009074417F
:1005900060462F460741E41900989D40281866419F
:1005A00016D4714671189A4025D5012320E093187E
:1005B0002A466A415200002B00D0521C1E23203EC6
:1005C0009B1B002B61DD3541EE1728186641E8D5ED
:1005D000001876415B1C9A4000D3401C4B05F31871
:1005E0001524E34010D3002B52D071467118D30F5D
:1005F000C01802D3491C05B0F0BD0123DB079A42A5
:10060000F9D140084000F6E701225205B21801D1A5
:10061000002853D00123CC0ADB029943891E002A0B
:1006200008D1020C03D0020C0004103902E002468B
:10063000002020390023550B05D112020823550B49
:1006400001D152010D23550C01D112011B1DD50CF6
:1006500001D192009B1C150D01D152005B1C20257D
:10066000EE1A01E02CE022E00546F54015439840E3
:10067000CA1AE10769181305C918002ABBDA032052
:1006800040070818C10FC9070FE071466118B2E7AB
:10069000F10740080843711071444A000CD001234F
:1006A0005B059A42A7D2C90FC9070020A3E74905F5
:1006B000490D26D1002001E00028F4D100219AE75D
:1006C000284D6600002801D0012100E000217118AA
:1006D0005F00002A01D0012600E00026BE19224F4B
:1006E000A94210D8AE420ED8B14208D001256D05FE
:1006F000E94206D01946A802414010467BE79C42D9
:1007000001D0214677E70020394674E710B50C4642
:100710005C4005D50124E4076340FFF70CFF10BDE2
:10072000FFF778FE10BD30B40C465C4004D50124C0
:10073000E407634030BC6DE630BCFCE670B50124D4
:10074000E40761400D465D4002D4FFF763FE70BDD3
:100750006340FFF7F0FE70BDFF0700000000F0FFF0
:100760000000F07F0000E0FF0000F87FF0B5F94DD9
:100770000C091E092C402E402F468BB0A7437DD07C
:10078000B543FCD0002E7AD0002CFCD00D465D4045
:10079000ED0F2543AC1BFF25AD0464190894C50279
:1007A000440DC9022143500DDC0204430120C0075F
:1007B00001430443D2020191200C110C00958C4698
:1007C000010423468B430A9161460904E24D8A43A2
:1007D0000991010A7D4449198039097805464D433C
:1007E00001266D18F605751B6943C90C640B891C3D
:1007F0004C436418B5012C1B250C2E04B4434C4308
:100800004D43210C691889090591009DE90701D024
:100810000121C90704912C4601996708CD072F4390
:100820004C08059DE10B4D432D0C2946664675434A
:1008300002950D4645432E46029D7D1BB441009511
:100840000D465D4301942C0C2F040D465543AE46D6
:100850002D0C3D43029503947546049C2D04641BA6
:10086000049406D2029C039D641C002675410395E6
:10087000029401AC70CC009F7D1B01E03EE162E17F
:10088000B44109040095079101940599A4086143B6
:10089000090C0C464443650BE7040C46664674435A
:1008A000A646640B3C43039502947446049DE404FD
:1008B0002C1B049406D2029C039D641C00267541E7
:1008C0000395029401AC70CC009F7D1BB441019450
:1008D0000C465C430095650FE7000C465443A64662
:1008E000640F3C43039502947446049DE4002C1B62
:1008F000049406D2029C039D641C00267541039556
:10090000029401AC70CC009F7D1BB441AE09AF06D0
:10091000049DC900AD092F43049DA406AD060495AE
:10092000079D344369180791059DE10B4D432D0C3C
:1009300029466646754302950D4645432E46029D5F
:100940007D1BB44100950D465D4301942C0C2F0492
:100950000D465543AE462D0C3D4302950394754616
:10096000049C2D04641B049406D2029C039D641C09
:10097000002675410395029401AC70CC009F7D1B4D
:10098000B44101948C050694079C890A611800956E
:100990000791019C0599A4086143090C0D46454344
:1009A000680BEF040D46644665436C0B3C43049FA3
:1009B000ED047D1BAC4602D20025641C6841009EFC
:1009C000019D371B85410846584301950C46460F4B
:1009D000C5005443600F28436546E4002C1B02D237
:1009E0000025401C6E41019D3F1AB5412846BD09B6
:1009F000800628438446A009BF064E020699A40635
:100A000076180743079D002068410A99079019430B
:100A10000020099B00906046FF1913434041E20FFC
:100A200064003A43A4460446D71A8C41A04203D935
:100A30000120009020463A46C70F94184041624674
:100A4000D20F2243644664000494009CBE466400B6
:100A5000D71AA446044602978C417746002F01D14D
:100A6000A04204D96046401C8446029A2046C40F26
:100A7000A64694184041049A0546D20F2243644684
:100A80006400D31A8D417146002901D1A84202D9D0
:100A900028461A46641C10430122002800D0164341
:100AA00061020020079B891904465C410223002C47
:100AB00002DB491813466441089DCE0A2D145D19C6
:100AC0004B056705E10A2C050D1908993E43C90736
:100AD0006940002B08D0934006D30022761C514178
:100AE000002B01D1760876001C4A002D43DB15420D
:100AF00041D0AA433FD030460BB0F0BD06180D469A
:100B00004D41174C7642AC411AD395181C465C41B6
:100B1000134A6D42A24113D3012252054C00D44224
:100B20000AD15C00D4420BD04B4002D59202114353
:100B3000E2E749004908DFE75940C90FC90718E053
:100B400000200849D8E7054801420DD10342F7D0FB
:100B5000F2E700000000FF07583C00000000F07FB3
:100B60000000E0FF0000F87F114859400143C01227
:100B700041400020C0E70123089A9B069A4205DC09
:100B8000032252078918C90FC907B5E70522520782
:100B90008918074A1143D2125140ADE770B5154686
:100BA0001C4602460B4628462146FFF7DFFD70BD76
:100BB000FFFFFF7F30B50346CA02400D1043164DBC
:100BC000164C0A1502D02043002A06DBAA1A002A76
:100BD00012DDD040FF2A0BDC30BD5205520D01D191
:100BE00040004008AA1A07D4D0404042FF2A01DD45
:100BF000002030BD0028FCDD4A00002B01D0012080
:100C000000E00020101801225205D042F0D8C81789
:100C1000C043604030BD00001E04000000000080A2
:100C20001F22030C02D10F22000402D0030E03D0B6
:100C300004E00020014670470002083A030F01D18A
:100C40000001121F830F01D18000921E002801DBDA
:100C50004000521E120551184205C012411810469C
:100C60007047C10FC90700D04042012292071143CB
:100C7000D6E701218907D3E7F0B58B4C0F0925464C
:100C800089B0BD437BD01D092646AE43FAD00E463F
:100C90005E402740F60F3E43254071D0240121429B
:100CA000FBD0FF24AD19A4042D1B039501252D05B0
:100CB000DB02DB0AC9022B43C90A29431E010901D1
:100CC000040F130F050121431701880B8203914381
:100CD0002D098C46A90B1E438A039543B30B9A0337
:100CE00096433F09BA0B9403A74302962E467E43D0
:100CF0000497B6464E19D7190C46019654430597EA
:100D00007E43371B7646BF1B3601B646BE0B3619EF
:100D100000967646BC043719009C01D3641C0094ED
:100D20006400002F01D001263443029E049F7543C6
:100D300066467E430496760034196E00341900949A
:100D4000029C019E1C196643751BAE4606946546BF
:100D50004519059C05956C43594375460891691AD8
:100D60000191049E01465143A41B0491611A009C09
:100D70000791E10605D061090122114302E072E00A
:100D80006EE06109089D00272C0A2D066918049D54
:100D90007C412A0A2D066918019D6241AC0DAD0205
:100DA0006D185441079A910D920255196141029AAA
:100DB000644658435443069B059A5A43121A131B20
:100DC0009A0E9B015B187A41010B0005C318514133
:100DD000220A200644195A419A4200D2491C012095
:100DE0004002814203D315230226F64302E0142376
:100DF0000326F6432020C51AA9401746AF40DA4023
:100E00000A4320460399D84009147318190551184C
:100E1000039A3843D2075140AC4009D00122944094
:100E200006D30022401C5141002C01D14008400053
:100E30001E4A934212D3012203989206904207DB86
:100E40000520400709181A480143C012414004E038
:100E5000032040070818C10FC907002009B0F0BDE2
:100E60000020F107FAE705180C464C4111486D4285
:100E7000A04115D394181A465A410E486442904135
:100E80000ED301204A004005824209D35A00824213
:100E900006D35940C90F084AC90700201143DDE7AE
:100EA00000200649DAE700000000FF07FE07000007
:100EB000FFFFFF7F0000E0FF0000F07F0000F87FF1
:100EC0000121C9050123411842001B06D3185B0EFE
:100ED0000AD0C1100722D206891840075242D142D7
:100EE00001D5520089187047090208D50146002A29
:100EF00003D0C10FC9070020704710467047420257
:100F000002D0002002497047072109050143F4E798
:100F10000000F87FF0B5FF252D04C609C209FF27A0
:100F200004462E400137CB093E4348402A402B401F
:100F30000746002A6BD0002B69D0AA4267D0AB428B
:100F400065D0002800DA32460125ED0529432C43FF
:100F500009022002090AD21A4B0C7F24E31A434CDF
:100F6000000A7C44E35C7D242404121914145B0001
:100F7000A218884201D3521C00E0400049420C46AE
:100F80005C4324115C43DB016415E318040A5C43F1
:100F9000C502200D0C4644436419250A5D43230312
:100FA000EC0C0D46654300030019EB184C42A342BC
:100FB00001D35B18401CD4052018002B07D05B0020
:100FC000C91804D3401C002901D1400840003F212A
:100FD00089048A4209D3002A08DC1106090F04D0CB
:100FE000032149074018C00FC007F0BD012241008E
:100FF000120689187F2252069142F6D2052149072E
:10100000C84201D59010F0BDFF20C005F0BD002FF3
:1010100000DA32461648AA4207D2AB4205D219027C
:10102000090E17D0F80FC007F0BDFF2563002D068D
:10103000AB42F9D84900A942F6D8AB4201D1A94246
:10104000F2D0A94201D1002101E061004908D00598
:101050000843F0BD1102090EFBD0FF200243D0056A
:10106000F0BD0A460146104654E700004A3500002C
:101070000000C07F10B501469E240002CA15A307D8
:10108000002A02D01843002A04DBA21A002A0CDD31
:10109000D04010BD1206120E01D140004008A21A25
:1010A00003D4D04040420028F3DDFF22480012065E
:1010B000904201D9002010BDC817C043584010BD50
:1010C0000102C21504D00123DB071943002A0ADB01
:1010D0009E239A1A02D40846D0407047FF2241004E
:1010E0001206914201D900207047C017C0437047D3
:1010F0001F22030C02D10F2200041CD0030E01D1C9
:101100000002083A030F01D10001121F830F01D121
:101110008000921E002801DB4000521ED2055118AB
:10112000021251181922904004D3491C002801D101
:101130004908490008467047C10FC90700D040421E
:10114000012292071143D3E701218907D0E710B5A7
:1011500000F0F2F8006810BD10B5044600F0ECF89D
:10116000046010BDF0B53D4B02460C461C4000200B
:10117000002C63D03A4D8B4366D000296BDB0B0DFE
:101180001D05A94301252D0529430124FD33E34015
:1011900001D392184941FF3381339C468B02940D51
:1011A0000121234389074C42920200271B198C100E
:1011B0005D1A04D42D1B02D42B46650049199218E0
:1011C0005B416408F4D15C1A08D40125ED07EE17E1
:1011D0005519744102D42A462346491C94185B4190
:1011E000012292071D46E61B8D4106D4B61A8541A1
:1011F00003D42B46550034467F1924195B4152080D
:10120000802AEFD1234300D0022338460A22D0405F
:1012100001D3012213438A0510436246890A12054D
:101220008918002B09D00122D34002D30022401C90
:101230005141002B01D140084000F0BD0B03134386
:1012400007D0C90FC907F0BD0803104303D1002917
:1012500001DB1046F0BD00202946F0BD0000F07F04
:101260000000F87F10B5FF22C30D134009D05A408B
:1012700007D0914205DA5C42A14202DDC905081897
:1012800010BDC40FE407002B06D0002A06D00029A9
:1012900002DBFF20C0050443204610BD4102FCD004
:1012A000004810BD0000C07F30B5C30D1906214AAB
:1012B000090E31D0FF292FD000283ADB010250025D
:1012C000014301207D33C34000D24908012080073B
:1012D0001724091A2406490882102343FF252D06E6
:1012E0004C00211A04D4891A02D45400201800E0BA
:1012F000214652085B19F3D51A220446944007D3BD
:1013000082068A4203D180218030884300E0803009
:10131000C009D905081830BDFF2904D04100FAD012
:10132000C00FC00730BD410201D0104630BD0028BB
:10133000FCDAFAE70000C07F004870470000202078
:1013400010B5FF231B0644009C421DD84C009C4254
:101350001AD80346124A0B4307D4401A02D3EFF3BC
:10136000008010BDEFF3008010BD081A03D3EFF327
:101370000080904305E0EFF3008001219043C9070E
:10138000084380F3008810BD0D231B041A4204D0CB
:101390001146002000F031F810BD00F045F810BDF6
:1013A0000000009000487047000020207546FFF7BD
:1013B000F9FFAE46050069465346C008C0008546A1
:1013C00018B020B5FEF7DAFE60BCB646002600274E
:1013D000C0C5C0C5C0C5C0C5C0C5C0C5C0C5C0C5E5
:1013E000403D490849008D46704710B50446C04647
:1013F000C0462046FEF7B3FE10BDC80212D5480312
:10140000400F002804D0C803C04301218840704722
:10141000EFF300800001000903210907084380F36E
:10142000008870470020704710B5024800F004F8AB
:1014300010BD00000000C07F10B50C461107090F59
:10144000092904D00A290AD008290CD104E0114640
:101450000820FFF7D2FF06E0510606D501E051064D
:1014600001D50120C007214610BDD10607D50101D5
:101470000909CC084907000E0006044309E0410FA2
:1014800020024907000A0143200E00061D22D14117
:1014900001430846E7E7000001491820ABBEFEE71C
:1014A00026000200704700000A480068C0B2062803
:1014B0000ED1094801210170080208490A688243D7
:1014C0000A60074810210160BFF34F8FBFF36F8F91
:1014D0007047C046201000409C0E202004110040A0
:1014E00080E100E0B0B50A78032313400B4A84582A
:1014F0000B4D2540EB18A92424061B198350072205
:1015000012064B6813401124240205599543EA182A
:101510000251001949780161B0BDC04608080000B9
:10152000FCFFFF00811E091F00BFFCD270470000B6
:10153000B0B5112212028358174C1C408B888D685D
:101540001D43164B2B401B1983508B890C681C4381
:101550008B7B2343124C1C4080180269114B1340B3
:10156000E2180261CA7B0B694C69134323430A8B5F
:101570001A430D4B1340026A0C4C14401A190262B4
:101580008A7E898B11430A4A0A40016B094B0B4042
:1015900099180163B0BDC046FFFEFEFF00010100C7
:1015A00003030001FCFCFFFE01030301FEFCFCFE43
:1015B000010F0000FEF0FFFFB0B5536894681C43B4
:1015C00093892343146955691C43D3892B431B0119
:1015D00023430C01041909256D02635113785278D5
:1015E0001A43BF231A4089004018034944589C43BA
:1015F000A2184250B0BDC0461011000010B5012421
:10160000A0071E49FFF76EFF1D48011F0A681D4B0A
:10161000134062049A180A6001681B4A0A4002607B
:101620001A4902220A60A10202680A4302602204E7
:10163000014608390B6813430B6027221201C26070
:101640000022026122020368134303601F22D202B8
:1016500003689343032212039A180260E0040C4AC1
:10166000136E03431366106A202318431062106838
:101670001843106008682043086010BDB04800009F
:1016800008110040FEFFECFFF8FFE0E08011004091
:101690002810004080B505480549FFF749FF054877
:1016A000016801220A43026080BDC04600800140FB
:1016B000B84800000091014080B503480021034A6A
:1016C000FFF77AFF80BDC04600A04240D848000026
:1016D00080B5FFF7F1FF80BD044881210160012042
:1016E00080030349086008637047C0469080424009
:1016F000A0120A4010B51048002101600320C14328
:101700000E480246083A13680B4013600268012134
:101710008A4302600A020368934303600A03031FBB
:101720001C6814431C60426B10231343436349023B
:10173000026B8A43026310BD08030B4008010B4093
:10174000084809494160FF210906084A13688B438C
:101750000321890759181160002181600721016068
:101760007047C04610E000E0FF7C000020ED00E084
:1017700080B500F00DF8FFF7AFFFFFF7BBFFFFF7F5
:101780003DFFFFF7A5FFFFF7DBFFFFF783FF80BDFE
:1017900010B5094809494160094A5160094B59602F
:1017A000094C6160094901601160196021601020D5
:1017B000FFF7B8FE10BDC04600080A40030000B1A4
:1017C00000280A400008004000880140010000266F
:1017D00070470000F0B591B00D46044601F082FD5F
:1017E0000746401EA84214D20F94032428462040E6
:1017F00002903846FFF7A8FC0C902846FFF7A4FC9F
:101800000646042D109007970A95019403D20021F3
:1018100010E1002735E22046784306902846A04391
:10182000059078000490B80003900024F24D214602
:101830000D940E910846FFF77FFC01460C9802F0CC
:1018400037FD3146FFF766FBFFF714FC07462046DD
:101850000A9E3146FEF7A0FC0C46790009910F98CC
:10186000405AFFF771FC0746301BFFF76DFC01463D
:10187000384602F01DFD1099FFF74CFB28600F98C9
:10188000099940184088FFF75FFC07462046FFF79C
:101890005BFC394602F00CFD1099FFF73BFB01465B
:1018A0000B95286802F06AFC28600E98401CFFF730
:1018B00043FC01460C9802F0FBFC1099FFF72AFB51
:1018C000FFF7D8FB07460D98079908183146FEF731
:1018D00063FC0C460991780008900F9D285AFFF789
:1018E00033FC0746301BFFF72FFC0146384602F059
:1018F000DFFC1099FFF70EFB0B9C6060089828181E
:101900004088FFF721FC07460998FFF71DFC394680
:1019100002F0CEFC1099FFF7FDFA0146606802F074
:101920002DFC60600E98801CFFF706FC01460C98A9
:1019300002F0BEFC1099FFF7EDFAFFF79BFB05469E
:1019400004980D9940183146FEF726FC0F46099180
:10195000680008900F9D285AFFF7F6FB0446F01B1D
:10196000FFF7F2FB0146204602F0A2FC1099FFF7B8
:10197000D1FA0B998860089828180B9D4088FFF7CA
:10198000E3FB07460998FFF7DFFB394602F090FCBE
:101990001099FFF7BFFA0146A86802F0EFFBA860B4
:1019A0000E98C01CFFF7C8FB01460C9802F080FCA3
:1019B0001099FFF7AFFAFFF75DFB074606980D9900
:1019C00040183146FEF7E8FB0C4609917800089074
:1019D0000F9E305AFFF7B8FB07460A98001BFFF727
:1019E000B3FB0146384602F063FC1099FFF792FA08
:1019F000E860089830180D9C4088FFF7A5FB074663
:101A00000998109EFFF7A0FB394602F051FC3146C1
:101A1000FFF780FA0146E86802F0B0FB0E99E86033
:101A200003982418091D10350598814200D0FFE65F
:101A3000079F0A9D0298002800D1CDE008460E912C
:101A4000FFF77AFB01460C9802F032FC3146FFF7B3
:101A500061FAFFF70FFB064638460E9948432946C0
:101A6000FEF79AFB0C4670000D900F9F385AFFF757
:101A70006BFB0646281BFFF767FB0146304602F06A
:101A800017FC1099FFF746FA0E998D007E494851D0
:101A90000D983818079F4088FFF756FB06462046EA
:101AA000FFF752FB3146109C02F002FC2146FFF783
:101AB00031FA0146744E705902F060FB0E99705174
:101AC000029A0A9D012A00D186E0481C05460D9025
:101AD000FFF732FB01460C9802F0EAFB2146FFF7C4
:101AE00019FAFFF7C7FA06466F4338460A99FEF718
:101AF00053FB0D460B9177000F9CE05BFFF724FB37
:101B000006460A98401BFFF71FFB01463046109E11
:101B100002F0CEFB3146FFF7FDF90D998D005A49D1
:101B20004851E019079F4088FFF70EFB04460B98C9
:101B3000FFF70AFB214602F0BBFB3146FFF7EAF94B
:101B40000146514C605902F019FB0E9960510A9DF3
:101B50000298022840D08C1C20460E94FFF7ECFA25
:101B600001460C9802F0A4FB3146FFF7D3F9FFF7CA
:101B700081FA0646674338462946FEF70DFB0F46B5
:101B80000D9174000F9D285BFFF7DEFA06460A9858
:101B9000C01BFFF7D9FA0146304602F089FB1099C5
:101BA000FFF7B8F90E998E003749885128190A9D18
:101BB000079F4088FFF7C8FA04460D98FFF7C4FA5C
:101BC000214602F075FB1099FFF7A4F901462E4C4F
:101BD000A05902F0D3FAA051022D52D328466D1E0F
:101BE0002A4601990A40801E032807D201240F9E2D
:101BF000002A29D145E0C046140F202010928D43C1
:101C0000214E103600270F9C30460C380068FFF735
:101C100057FA6080304608380068FFF751FAA08014
:101C2000301F0068FFF74CFAE0803068FFF748FA91
:101C30002081103608343F1DBD42E5D17C1C079F32
:101C40000F9E109A002A1CD0A0000F490858154674
:101C5000FFF736FA61007052012D12D0661CB000F9
:101C600009490858FFF72CFA71000F9E7052022D97
:101C700007D0A41CA00004490858FFF721FA61000E
:101C80007052384611B0F0BD140F2020F0B5002975
:101C900014D000230324E44315882540465957886F
:101CA0002740C4594451C65144196568C61977681C
:101CB00067607560121D9B1C8B42EBD3F0BD00006A
:101CC000F0B581B0009316460C4607460588012AF8
:101CD0000CD1002D3DD0201D29460122D2070368DA
:101CE00053400360491E08300029F6D1FF2D0DDD59
:101CF0002B48854211DD012001038D4223D0C10212
:101D00008D4212D08002854218D022E03F2D11DC96
:101D1000102D13D0202D08D01BE0012001028D4290
:101D200003D0400285420ED013E03846214600F031
:101D300063F90EE0402D06D0802D0AD138462146A9
:101D400000F030F805E07A6801232046294600F0CB
:101D500057FC0098002804D0BA68B9892046FFF7DC
:101D600095FF012E1AD12846FFF7EEF901467F2094
:101D7000C005FFF7CFF8002D10D006462168304689
:101D800002F096FA20600120C007616841403046A9
:101D900002F08EFA606008346D1EEFD101B0F0BD24
:101DA000FF030000F0B59BB0028893000391C918AF
:101DB0001091009040680290D30850080190002BC9
:101DC00000D108E101988000039909180F9110993A
:101DD00008180E9000250D93039C60590790109AE7
:101DE00051590891174602F0C9F90E9B59191A91D9
:101DF0004A6814928A681792C96819910F9A5619FD
:101E000071681391B1681691F1681891595912913E
:101E100051591191791915914A6804928F680A975E
:101E2000C9680C9160516419E0680B9002F0A6F942
:101E3000E060A0680990394602F0A0F9A0606068EF
:101E40000690049F394602F099F960601198129942
:101E500002F094F90F9948511398149902F08EF9F1
:101E600070601698179902F089F9B060189819995E
:101E700002F084F9F0600798089902F071FA0446BC
:101E800005900698394602F06BFA0746029E715992
:101E900020460C46079102F00BFA04907019089046
:101EA00046683846314602F003FA0146049802F0CB
:101EB00065F9109948513846214602F0F9F904466F
:101EC00005983146069602F0F3F90146204602F0E5
:101ED00047FA159948601298119902F041FA0446A0
:101EE00012901498139902F03BFA074620463146A7
:101EF00002F0DEF904463846079E314602F0D8F972
:101F00000146204602F02CFA0E99485138460699AF
:101F100002F0CEF904461298314602F0C9F9214682
:101F200002F02CF91A99486009980A9902F018FAF7
:101F300004460B980C9902F013FA1290089EB768A9
:101F40003946139702F0B4F91190F16814912046C4
:101F500002F0AEF90146119802F002FA159EF06007
:101F60002046394602F0A4F904461298149F3946D7
:101F700002F09EF90146204602F000F9B060179881
:101F8000169902F0EDF9064617901998189902F083
:101F9000E7F91990394602F08BF904463046139F51
:101FA000394602F085F9214602F0E8F81A9EF06001
:101FB0001798149902F07CF904461998394602F0F2
:101FC00077F90146204602F0CBF90D9BB060103541
:101FD0005B1E00D0FFE602240398019D2946029A69
:101FE000234600F00DFB00984268109829462346CE
:101FF00000F006FB1BB0F0BDF0B5ADB00D4605908E
:1020000001882991480827908700E819C15925912E
:1020100004462868249002F0B1F82890E9592B91E1
:1020200002F0ACF8E6190494F1592A9102F0A6F8EE
:1020300028607168219103966868209002F09EF8EC
:10204000269064682146239402F098F8F1190291D1
:102050004E683146229602F091F8686024982599DE
:1020600002F07EF92590214602F088F8314602F010
:1020700077F92C95E8512098219902F071F9249074
:102080002B9D294602F06CF92A9E314602F076F823
:10209000049C60602898294602F062F9314602F0FB
:1020A0005FF9E0512698239E314602F059F9229DAE
:1020B000294602F055F9039C60602598314602F0EC
:1020C0004FF9294602F05AF8E05124982B9902F072
:1020D00055F82A9902F044F9029948600C20279A91
:1020E0005043229008382B90059840680690384657
:1020F00008382890D100084608382A90100108387E
:102100002790299880080190801E40082190002087
:10211000209029901F902C9C29982018249080684A
:102120001D9012916618B1681C9102F027F8239057
:102130001397E519A968269102F020F822996718EB
:10214000B968259102F01AF8F9681891EC681994A9
:102150001A96F1681791249A9060D668304602F07A
:102160000DF81E901695E96802F008F81B97F968BB
:1021700002F004F82499C8601D981C9902F0F0F848
:102180002490214601F0FAFF189F394602F0E8F842
:1021900014903046179902F0E3F81D90269C2146D2
:1021A00002F0DEF8259D294601F0E8FF0646239857
:1021B000214602F0D5F8294602F0D2F817901E9871
:1021C000199C214602F0CCF8394602F0C9F8239058
:1021D0002498214602F0C4F8394601F0CFFF199047
:1021E0001D98269901F0CAFF259902F0B9F82490AC
:1021F00006981F994118189120994118159129990D
:1022000044182198002800D15FE12C9907942A985E
:102210000C180D941C9628980B180E932B980A18DE
:10222000109205462B9027980E1811960746279076
:1022300058680B9051680C9101F0A0FF0F906168F5
:102240001E9101F09BFF71681D9101F097FF2C9B7F
:10225000DA5926922A9E9A592592595909910E9A2D
:102260005060289C185908901D4601F087FF0E9079
:10227000A95901F083FFE95901F080FF2851079D1A
:10228000AC681C9821460A9402F012F80746E968E7
:102290000791149E304602F00BF80146384602F0D2
:1022A0005FF8169DE8603046214602F001F80746C7
:1022B0001C98079C214601F0FBFF0146384601F0BF
:1022C0005DFFA8600898099902F04AF80546169043
:1022D0000B980C9902F044F806461C901E981D9924
:1022E00002F03EF801461490284601F047FF0546EB
:1022F0000C903046259902F033F8269901F03EFF04
:1023000007462846214601F0D3FF064638460A9D77
:10231000294601F0CDFF314601F030FF2A992C9A71
:1023200050503846214601F0C3FF04460C98294618
:1023300001F0BEFF0146204602F012F80D994860F8
:10234000159C2569239829460D9501F0B1FF064695
:1023500061691591179C204601F0AAFF014630469D
:1023600001F0FEFF1A9FF8602046294601F0A0FF09
:1023700006462398159C214601F09AFF01463046F7
:1023800001F0FCFEB8600E98259901F0E9FF26994E
:1023900001F0E6FF054623900F981E9901F0E0FF3B
:1023A0001D9901F0DDFF074628460D9D294601F0E5
:1023B0007FFF06463846214601F07AFF314601F09C
:1023C000CFFF2B992C9A50500120C1077940284605
:1023D00001F06EFF05462398214601F069FF014692
:1023E000284601F0BDFF10994860189CA569249803
:1023F00029461E9501F05CFF0646E1692391199F6D
:10240000384601F055FF0146304601F0A9FF1B9CFC
:10241000E0603846294601F04BFF06462498239D8C
:10242000294601F045FF0146304601F0A7FEA060B5
:102430001498169901F094FF044624902698259943
:1024400001F08EFF1C9901F08BFF074620462946BC
:1024500001F02EFF044638461E9E314601F028FF4B
:10246000214601F08BFE279D2C994851384623992F
:1024700001F01EFF04462498314601F019FF014681
:10248000204601F06DFF119948602898083828907F
:102490002A9808382A902B9808382B902846083814
:1024A00027902998083029902098103020901F9864
:1024B00018301F9022980830229012990831139FEB
:1024C00008372198401E219025E6A1682B913046BF
:1024D00001F0EEFE0746E568149C2046294601F00F
:1024E000E7FE0146384601F03BFF169FF8602046A4
:1024F0002B9901F0DDFE04463046294601F0D8FE56
:102500000146204601F03AFEB860159D2C692398DB
:10251000214601F0CDFE06466D69179F38462946D3
:1025200001F0C6FE0146304601F01AFF1A9EF06027
:102530003846214601F0BCFE04462398294601F0A6
:10254000B7FE0146204601F019FEB060189DAC6947
:102550002498214601F0ACFE0646ED69199F3846E5
:10256000294601F0A5FE0146304601F0F9FE1B9E0A
:10257000F0603846214601F09BFE04462498294627
:1025800001F096FE0146204601F0F8FDB0600424FB
:102590002C98019E3146069A234600F031F8059D9D
:1025A0006A6804983146234600F02AF86A6803985E
:1025B0003146234600F024F86A68029831462346E3
:1025C00000F01EF82DB0F0BDF0B581B0002A15D096
:1025D00014460D4606463068014601F069FE07467E
:1025E0007068014601F064FE0146384601F0C6FD00
:1025F00001F0AEFD01C50836641EECD101B0F0BD9E
:10260000F0B5C7B00293039201900A461B91D0081F
:10261000182308931C46444328230793434330253B
:10262000069545433826059646432196D6001C96C6
:10263000C600209606011F96099040011E900020BA
:102640004690019E1D922494239322952098305801
:102650003D90F1583C9101F091FD07463F90305973
:102660003B90219971583A9101F088FD01463E90C6
:10267000384601F083FD04461E9831583791306882
:10268000369001F07BFD074631901F9830584290FC
:102690007159419101F072FD05463846294601F015
:1026A0006DFD0746214601F069FD30603846214640
:1026B00001F056FE1E9970502098301843904268E1
:1026C000359223983018459041683491104601F0B6
:1026D00055FD07463990249830184490426833924B
:1026E00021983018409041683291104601F046FD23
:1026F00001463890384601F033FE074631982946A6
:1027000001F02EFE0546394601F038FD1F99705044
:102710002846394601F024FE229970503D983C9994
:1027200001F01EFE05463D903B983A9901F018FED7
:1027300001463C90284601F013FE704901F0B8FDB7
:10274000044631903598349901F00AFE07463B90D3
:102750003398329901F004FE01463A90384601F070
:102760000DFD664901F0A4FD054632903698379973
:1027700001F0F6FD3390214601F000FD04461F985C
:102780003018369042683592229830183790416858
:102790003491104601F0E4FD0746294601F0EEFCB5
:1027A00005462046294601F0E9FC20997050204654
:1027B000294601F0D5FD219970503398319901F0E7
:1027C000CFFD04463846329901F0CAFD0546204641
:1027D000294601F0D3FC239970502046294601F088
:1027E000BFFD249970503998389901F0C7FC044610
:1027F0001E9830183390416839917068389001F014
:10280000BDFC054632903598349901F0B7FC074677
:102810002846394601F0B2FC0546214601F0AEFCDF
:1028200070602846214601F09BFD339948603F982F
:102830003E9901F095FD05463298394601F090FD2C
:102840000446294601F08CFD369948602846214609
:1028500001F094FC379948603D983C9901F08EFC5A
:10286000264C214601F024FD05463F903B983A99BD
:1028700001F076FD214601F01BFD07463E9042988F
:10288000419901F06DFD4290294601F077FC044624
:102890003898399901F064FD0546394601F06EFC1F
:1028A0000746214601F05CFD4399486020463946C1
:1028B00001F064FC4099486042983F9901F050FD56
:1028C000044628463E9901F04BFD0546214601F09D
:1028D00047FD459948602046249C2946229D01F0E9
:1028E0004DFC239B1D9A1B99449F78601C983618B9
:1028F000469880184690884202D2A7E6F304353FF6
:10290000402A00D282E2029880B20490002601217F
:10291000019A0B920C910498361805987043039F06
:102920003B581A93069971437B581993079A72433F
:10293000BB58189373014693FC581794089C744332
:102940003D59169535017B5915930A96F600BB59EA
:102950001493001D38581390081D38581290101DFC
:10296000385811904698001D38581090201D38583E
:102970000F90281D38580E90301D38580D900B9927
:102980000C9A40924691209808184390C2683A9257
:10299000239808184490C1683991104601F0EEFB65
:1029A00004462D904698249940184590C268379265
:1029B000469821994018C168389106463F901046C4
:1029C00001F0DCFB01462C90204601F0D7FB0746C6
:1029D00046981F994518429546981E99401841906F
:1029E000C1683E914698C0683D9001F0C7FB04461F
:1029F0002B90EA683C92469822994518E9682E95F2
:102A00003B91104601F0BAFB01462A90204601F0A6
:102A1000B5FB2590394601F0B1FB4699C860439853
:102A20008068329044998968319101F0A7FB04468F
:102A30002990459880683090B1682F9101F09EFBF5
:102A400001462890204601F099FB04464198816890
:102A5000349146988068339001F090FB06462790A9
:102A6000429880683690A968359101F087FB01464D
:102A70002690304601F082FB0546214601F07EFBA0
:102A8000469988602846214601F06AFC044625984C
:102A9000394601F065FC01462590179E304601F04D
:102AA00007FC0546109F3846214601F001FC01460F
:102AB000284601F055FC419DE8603046214601F072
:102AC000F7FB04463846259901F0F2FB0146204603
:102AD00001F054FBA8602998289901F041FC0546B3
:102AE00029902D982C9901F03BFC044641902798A1
:102AF000269901F035FC2D90214601F03FFB04465C
:102B00002B982A9901F02CFC2C90294601F028FCE6
:102B100001462B90159E304601F0CAFB05460E9FDC
:102B20003846214601F0C4FB0146284601F018FC56
:102B3000429DE8603046214601F0BAFB0446384623
:102B40002B9901F0B5FB214601F018FBA8602D98E8
:102B5000419901F005FC044629982C9901F00EFBDF
:102B600001464290199F384601F0A2FB0646129D8D
:102B70002846214601F09CFB0146304601F0F0FB5F
:102B80002E9EF0603846214601F092FB044628460E
:102B9000429901F08DFB214601F0F0FAB0603298C5
:102BA000319901F0DDFB0446329030982F9901F005
:102BB000D7FB01463190204601F0D2FB94490C46E8
:102BC00001F076FB074642903A98399901F0C8FB2C
:102BD00005463798389901F0C3FB0646284631462A
:102BE00001F0CCFA214601F063FB04463A90339899
:102BF000349901F0B5FB4190394601F0BFFA074620
:102C000037903C983B9901F0ABFB3C90214601F09A
:102C1000B5FA01463490384601F0B0FA3390329854
:102C2000319901F0ABFA7A4F394601F041FB044685
:102C30003B902846314601F093FB394601F038FBC2
:102C4000054638903698359901F08AFB399021462F
:102C500001F094FA044636903D983E9901F080FBCD
:102C60003E90294601F08AFA3D90214601F078FB1A
:102C700001463590149C204601F01AFB06460D9D36
:102C80002846339F394601F013FB0146304601F0D8
:102C900067FB439EF0602046394601F009FB07467A
:102CA0002846359901F004FB0146384601F066FAE2
:102CB000B0603798349901F053FB06463790369848
:102CC0003D9901F05BFA014643901A9F384601F0A6
:102CD000EFFA0546139C2046314601F0E9FA014619
:102CE000284601F03DFB3F9EF0603846379901F0E1
:102CF000DFFA05462046439901F0DAFA01462846F4
:102D000001F03CFAB0604198429901F029FB044679
:102D100043903C983A9901F023FB014642902046AB
:102D200001F02CFA044639983B9901F019FB05464D
:102D30003F903E98389901F013FB4190294601F0ED
:102D40000FFB01463E90189F384601F0B1FA064647
:102D5000119D2846214601F0ABFA0146304601F0AC
:102D6000FFFA449EF0603846214601F0A1FA04467D
:102D700028463E9901F09CFA0146204601F0FEF9F2
:102D8000B0604398429901F0EBFA04463F984199AC
:102D900001F0F4F901464490169F384601F088FA94
:102DA00006460F9D2846214601F082FA014630462C
:102DB00001F0D6FA459EF0603846214601F078FAD7
:102DC00004462846449901F073FA0146204601F072
:102DD000D5F9409A4699B0601C9809181D981218A8
:102DE0001B98824200D2CCE50B9A08320C99491C00
:102DF000099881420A9E00D28BE50298C000029099
:102E00001D983F28099A01D9FFF701FC47B0F0BD92
:102E1000F304353FB0B50F490B684001262206E0A8
:102E2000E41A0D1F2D686419A218824210D21C46A4
:102E30000B68A34208D10B68A34205D10B68A342DB
:102E400002D10B68A342F3D09C42E9D9E41AEBE724
:102E5000B0BDC04618E000E0F0B595B0049308920C
:102E60001190103001260025129503E01290761C77
:102E70001498103014900C3807682846394601F031
:102E800079F804462846394601F074F8002813966C
:102E900000D1129E002C00D12F46149D28460838E0
:102EA00004683846214601F065F8002801D01398DF
:102EB000461C3846214601F05DF8002800D13C460A
:102EC000281F07682046394601F054F8002802D12F
:102ED0001296139902E01399881C1290CE1C802E32
:102EE00018D02046394601F045F8002800D1274681
:102EF0002C683846214601F03DF80028254600D1CF
:102F00003D463846214601F035F800283046ADD11F
:102F10001298ABE70498002800D1E4E003210246B0
:102F20000A4003928008029100D1E0E0C94348437F
:102F300005900C20129D6843021F031D2801079075
:102F4000A800041F14940690001D13901295E80029
:102F5000041F1094001D0F90002704240E9401916B
:102F60000D913C46089D23E011980068089E059944
:102F7000099BE86007980D9C24180D940E9C24185A
:102F80000E94069C0B9F3F1B149C24181494139CB6
:102F900024181394109C241810940F9C24180F9438
:102FA00012181B180A9C241F1035A14200D195E06D
:102FB000002F0C9209930B970A941ED0119E0D9826
:102FC00037183058014601F073F904467868014615
:102FD00001F06EF9214601F0D1F804460E98305800
:102FE000129E014601F064F9214601F0C7F8BC4980
:102FF000FDF790FF01F0ACF802E011980068129E16
:103000002860002E1ED0119E1498371830580146A3
:1030100001F04EF904467868014601F049F921466D
:1030200001F0ACF8044613983058129E014601F0A6
:103030003FF9214601F0A2F8A949FDF76BFF01F025
:1030400087F801E0119800686860002E1ED0119E7C
:10305000109837183058014601F02AF9044678686C
:10306000014601F025F9214601F088F804460F9841
:103070003058129E014601F01BF9214601F07EF8FE
:103080009749FDF747FF01F063F801E011980068E8
:103090000C9AA860002E00D166E7119EB718B058B0
:1030A000014601F005F904467868014601F000F98F
:1030B000214601F063F80446099FF059014601F0EA
:1030C000F7F8214601F05AF88549FDF723FF01F092
:1030D0003FF83B460C9A089E05994AE70198C51CA3
:1030E0006543374605E000200146089FE7E00025DC
:1030F000089F129E0398002800D180E03046684364
:103100001FD08700119CE619301F0068014601F0AE
:10311000CFF81490E059089F014601F0C9F81499BE
:1031200001F02CF804467068129E014601F0C0F8C8
:10313000214601F023F86A49FDF7ECFE01F008F89A
:1031400001E011980068A90078500398012856D032
:10315000691C002E23D0304648438600119CA719D5
:10316000381F00681491014601F0A2F81390A0598D
:10317000129E014601F09CF8139900F0FFFF0446EF
:103180007868089F014601F093F8214600F0F6FFA9
:103190005349FDF7BFFE00F0DBFF149901E01198E1
:1031A0000068890078500398022828D0A91C002EB6
:1031B00021D04E43B700119DEE19301F00681491C5
:1031C000014601F075F80446E859089F014601F0F0
:1031D0006FF8214600F0D2FF04467068014601F006
:1031E00067F8214600F0CAFF3D49FDF793FE00F065
:1031F000AFFF149901E01198006889007850002011
:10320000049A032A01465AD3971E3E4602990E405D
:10321000D01E032802D2022000242CE014968F43F3
:10322000089E0C3600242546301F0068014601F038
:103230003FF8214600F0A2FF04463068014601F045
:1032400037F8214600F09AFF04467068014601F005
:103250002FF8214600F092FF0446B068014601F0C5
:1032600027F8214600F08AFF044610362D1DAF4294
:10327000DAD1A81C149E002E089F1DD08500785915
:10328000014601F015F8214600F078FF0446012EB2
:1032900012D0ED196868014601F00AF8214600F0E5
:1032A0006DFF0446022E07D0A868014601F000F821
:1032B000214600F063FF04462046FDF701FE00F0C2
:1032C00023FF04460D467868FDF7FAFD02460B46DB
:1032D00020462946FDF74AFAFDF75EF815B0F0BD25
:1032E00000004040F0B587B00488002904900391A5
:1032F00014D00A460346012110460840012A2DD168
:103300000021254600280AD048000499085A854221
:1033100000D30546844202D8044600E025466000FA
:1033200040190327394600F00DFD064668002018B5
:10333000394600F007FD03994B1EFA43002B029219
:10334000019308D01C463C400594891E032921D2D4
:10335000002423465AE0D41C00238BE08A4300213A
:10336000254603E01B1D891C8A42CBD01E88B5422E
:1033700000D335465F88BD4205D33D46B44204D9EB
:10338000BC42EFD804E0B442FAD83446BC42E9D893
:103390003C46E7E79908514306910023049C05E069
:1033A0003F1D0699CA190834032A2ED02288964256
:1033B00008D36288964205D2FA1E1D469B00FC493E
:1033C000CA506B1C6288964208D3A288964205D2E6
:1033D000BA1E1D469B00F649CA506B1CA288964235
:1033E00008D3E288964205D27A1E1D469B00F0491A
:1033F000CA506B1CE2889642D2D322899642CFD221
:103400009A00EB4DAF505B1CCAE7FC1E05990029E2
:103410002ED06100049A575A651CBE4207D36F0034
:10342000D75BBE4203D29A00E14FBC505B1C059AA9
:10343000012A1DD06F00049AD75BA41CBE4207D39B
:103440006700D75BBE4203D29A00D94FBD505B1CC8
:10345000059A022A0CD06200049DAA5A964207D30C
:103460004919C9888E4203D29900D14A54505B1C35
:103470005C1E30D003262640CD4D2968224612D04E
:10348000A200AF587F1AAF50621E012E0BD09200DF
:10349000AF587F1AAF50A21E022E04D09200AE5831
:1034A000761AAE50E21E042C01D21F4614E094009E
:1034B00064190C3C1F46E3685B1AE360A3685B1A5F
:1034C000A36063685B1A636023685B1A2360103C27
:1034D000121FF0D100E00127029B019C002C0597F0
:1034E0000BD0032127460F40039A921E032A07D2CE
:1034F00000263346002F3FD16BE0DB1C00266BE03B
:103500000697A20853430026AA4C049D1F4604E0D8
:10351000091D5A180835032A2AD02A88904207D351
:103520006A88904204D2CA1EB300E2503B46761C21
:103530006A88904207D3AA88904204D28A1EB300B8
:10354000E2503B46761CAA88904207D3EA88904214
:1035500004D24A1EB300E2503B46761CEA889042F1
:10356000D6D32A899042D3D2B200A150761CCFE79D
:10357000CB1E069F002F2CD05900049D6A5A5C1C5C
:10358000904207D36200AA5A904203D2B200894DFA
:10359000AB50761C012F1CD06200049DAA5A9B1CC4
:1035A000904207D35A00AA5A904203D2B200814DEA
:1035B000AC50761C022F0CD05A00049CA25A9042A8
:1035C00007D30919C988884203D2B00079490B5042
:1035D000761C731E059F30D003251D40754C206856
:1035E000194612D099006258121A6250591E012DC4
:1035F0000BD089006258121A6250991E022D04D015
:1036000089006258121A6250D91E042B11D38A0005
:1036100013190C3BDA68121ADA609A68121A9A6067
:103620005A68121A5A601A68121A1A60103B091F57
:10363000F0D13546022F04D2B7E00125022F00D287
:10364000B3E0691E03200B46834301400491A81E8A
:10365000039001220024029505E0069A521C059F62
:10366000BA4200D198E0022DF8D3900050490E18CC
:1036700003980328069201D201204CE04D4A1032F3
:10368000002003E01032001D834241D0356811460E
:103690000C390F687F1CBD4209D835680968491E7E
:1036A0008D4204D33168A500434F7951641C3568BD
:1036B000114608390F687F1CBD4209D83568096872
:1036C000491E8D4204D33168A5003B4F7951641CDB
:1036D0003568111F0F687F1CBD4209D8356809681D
:1036E000491E8D4204D33168A500334F7951641CC3
:1036F000316815686D1CA942C4D8316815686D1E03
:10370000A942BFD33168A5002B4F7951641CB9E79A
:10371000401C029D069A049900299FD08100254FE4
:10372000781832687958491C8A4209D83168026889
:10373000521E914204D33168A2001F4FB950641C3D
:10374000069A0499012989D031684268521C914235
:103750000AD8011D32680968491E8A4204D33168BB
:10376000A200154FB950641C069A0499022900D191
:1037700074E731688268521C914200D96DE70830C5
:1037800031680068401E814200D266E73068A100BF
:10379000094A5050641C60E7002C06D0A00006497E
:1037A0004018001F006807B0F0BD002007B0F0BD52
:1037B000CC0E2020F00E2020A80E20208AB0FDF78D
:1037C000D7FF01273E027D20C0000390014D0197E5
:1037D00007960DE06000202000F042FA0623C7485B
:1037E0003146C74AFFF738FBC649086000BEC84DDE
:1037F000C64828607F20C005FC4908600398F73060
:10380000C1490860F4363046FFF704FBFA490868FE
:103810003843086004963046FFF7FCFAF44C204623
:10382000FFF7F8FAF348011F0868B84308910860E9
:103830002D682046FFF7EEFA2846FDF741FB0246C9
:103840000B4600252846F449FCF790FFFDF7B2F936
:103850000224022800D82046E64E30617561E44813
:10386000FFF7D8FA0899086838430860EB4E3570BE
:10387000FDF72EFFDF4A1068E5490840106010236D
:10388000E2480360BFF34F8FBFF36F8FDC490868D6
:10389000A0430860DB484860E148886084200590C8
:1038A000C860086820430860D74806930360D14B7E
:1038B0001868079908431860307800280DD120BF98
:1038C0003078002809D120BF3078002805D120BFEA
:1038D0003078002801D120BFEEE7D2482946D04CED
:1038E00003E010357A02954241D0625B904200D9E4
:1038F000605B625B914200D2615B621953889842BF
:1039000000D950885388994200D2518893889842B0
:1039100000D990889388994200D29188D3889842A0
:1039200000D9D088D388994200D2D188138998428F
:1039300000D910891389994200D21189538998427C
:1039400000D950895389994200D25189938998426C
:1039500000D990899389994200D29189D38998425C
:1039600000D9D089D3899942BBD2D189B9E7081A45
:10397000FDF777F9AC4AAD4BFDF77EF900220992CD
:10398000AB4BFDF779F9FCF707FD0646A948066041
:10399000A04D2868FDF794FAA74AA84BFDF76CF9EB
:1039A00002900C463046FDF78BFA02460B46029811
:1039B0002146FCF7DBFEFCF7EFFC286000F0E6FA9E
:1039C000FDF77EFA9E4A9F4BFDF756F99E4A9F4BA4
:1039D000FCF79CFEFDF7EEF89D490840874908601A
:1039E000049C2046FFF716FA8349086838430860AC
:1039F0002046FFF70FFA0398FFF70CFA874C099857
:103A00002070FDF765FE7B4A106881490840106010
:103A10007E48069B0360BFF34F8FBFF36F8F7849DB
:103A200008680225A843086076484860BE48886058
:103A30000598C860086804952843086072480360C8
:103A40001068079908431060207800280DD120BF26
:103A50002078002809D120BF2078002805D120BF78
:103A60002078002801D120BFEEE700F0F9F879486E
:103A7000099C046078480460B14F1037042501E0C8
:103A800010372D1D3E460C3E3168204600F067FA87
:103A9000002806D1E91E6F480991016034686E481C
:103AA00004603E46083E3168204600F058FA00287F
:103AB00006D1A91E67480991016034686648046010
:103AC0003E1F3168204600F04AFA002806D1691EE0
:103AD00060480991016034685F480460802D19D006
:103AE0003968204600F03BFA0028C9D159480560E2
:103AF0003C68594804600995C2E7C0468808202000
:103B000068002020181320200092014000007A480D
:103B1000600020200998FDF70FFB014686480068E9
:103B200000F0C6FB4D4908608321C90500F0C0FBC9
:103B30000446804E306008990868019FB8430860C9
:103B40002B48FFF767F92046FDF7BAF902460B4606
:103B5000002420463049FCF709FEFDF72BF8022827
:103B6000079E00D80498234D28616C612048FFF718
:103B700051F9089908683843086000BE2748047066
:103B80000446FDF7A5FD28682149084028601F4824
:103B9000069A0260BFF34F8FBFF36F8F1849086812
:103BA000049B98430860174848605F488860059800
:103BB000C8600868184308601348026028683043EA
:103BC00028602078002800D006E620BF2078002852
:103BD00000D001E620BF2078002800D0FCE520BFFF
:103BE0002078002800D0F7E520BFEAE7A00E2020CB
:103BF0001027000004110040009101400092014094
:103C000000B242406061554000E100E080E100E028
:103C1000FFFEFFFFA00E202080847E419C0E20200E
:103C20008C0C2020FFFF00006666666666660A4010
:103C30000000303F640020209A9999999999E93FB2
:103C40003333333333437240CDCCCCCCCC7E934032
:103C5000FF0F000080002020A40E2020880C2020D0
:103C6000F0B583B00120029001022F4E3046019141
:103C7000FDF7B0FD2D490090086000273C462C4818
:103C800005193088FDF760FA686029480751708887
:103C9000FDF75AFAE860AF60B088FDF755FA686141
:103CA0002F61F088FDF750FAE861AF613089FDF7C8
:103CB0004BFA68622F627089FDF746FAE862AF62DC
:103CC000B089FDF741FA68632F63F089FDF73CFA8C
:103CD000E863AF63403410360298C0028442CED10C
:103CE000009C2046FDF730FA014612480768384626
:103CF000FDF710F906467720C105384600F0D8FADE
:103D0000002C00D030460C4908600C48084D0022B9
:103D100001232946FDF7D4FF09492846019AFEF7F9
:103D200053FC03B0F0BDC0468C0C2020141320209F
:103D3000880020206000202084002020A04800006F
:103D40008808202043088B421AD3002203098B42A3
:103D500079D3030A8B425ED3030B8B4242D3030C0D
:103D60008B4227D30902FF2212BA030C8B4202D3E3
:103D70001212090203D0030B8B4233D31AE0D3E0B3
:103D8000411A8041401C704703460B4371D44308DD
:103D90008B42F5D3002203098B4254D3030A8B4292
:103DA00039D3030B8B421DD3030C8B4202D39446B1
:103DB0006EE0090AC30B8B4201D3CB03C01A5241F8
:103DC000830B8B4201D38B03C01A5241430B8B42AE
:103DD00001D34B03C01A5241030B8B4201D30B0397
:103DE000C01A5241C30A8B4201D3CB02C01A5241BE
:103DF000830A8B4201D38B02C01A5241430A8B4281
:103E000001D34B02C01A5241030A8B4201D30B0269
:103E1000C01A5241CDD2C3098B4201D3CB01C01A83
:103E2000524183098B4201D38B01C01A524143098D
:103E30008B4201D34B01C01A524103098B4201D37B
:103E40000B01C01A5241C3088B4201D3CB00C01AE8
:103E5000524183088B4201D38B00C01A5241430860
:103E60008B4201D34B00C01A5241411A52411000FB
:103E70007047CA0F00D04942031000D3404253405C
:103E800000229C4603098B422DD3030A8B4212D396
:103E90008901FC2212BA030A8B420CD389019211C8
:103EA0008B4208D3890192118B4204D3890137D008
:103EB000921100E08909C3098B4201D3CB01C01ADA
:103EC000524183098B4201D38B01C01A52414309ED
:103ED0008B4201D34B01C01A524103098B4201D3DB
:103EE0000B01C01A5241C3088B4201D3CB00C01A48
:103EF000524183088B4201D38B00C01A5241D9D260
:103F000043088B4201D34B00C01A5241411A00D2E0
:103F100001465241104663465B1000D34042704751
:103F200063465B1000D3404201B50021004201D03E
:103F3000C9430846C046C04602BD10B57F200021D7
:103F4000C005FCF7E7FF10BD10B50121FDF78AF9A8
:103F500010BD10B500210846FCF7DCFF10BD10B500
:103F600000F052F9EFF30080800001D5012010BD70
:103F7000002010BD10B500F071F9EFF30080800053
:103F800001D4012010BD002010BD0000F8B50121B2
:103F9000C9057F220026411A120691427BD20121D7
:103FA000C9044118CA15012341021B07C9184D0F46
:103FB0007F217F3A2B05C905B6185C18D205871AF0
:103FC0003046284345D02146384600F0D7F80090C7
:103FD0002146384600F0C4F90099FCF79BFF0746DC
:103FE000014600F065F93E49009000F061F93D4955
:103FF00000F0C4F804463846009900F059F921460B
:1040000000F056F904463046FDF796F80646364964
:1040100000F04EF93549AD007944495900F0AEF849
:10402000214600F0ABF8044601213846FDF71AF9A5
:10403000214600F0A3F8044630462D4900F038F937
:104040002C497944495900F099F8214600F096F836
:10405000F8BD384600F084F90546274900F028F9F4
:10406000264900F08BF8294600F022F9244900F097
:1040700085F8294600F01CF9224900F07FF8044633
:104080002946084600F014F9214600F011F90146CE
:104090002846DBE7FFE7FF2241001206914202D9E2
:1040A000FFF752FFF8BDFF22D2059042FAD014026A
:1040B000A04205D90120FDF74FF8FFF74AFFF8BDF0
:1040C000410005D01626F6431721FDF7CBF866E729
:1040D0000220FDF741F8FFF730FF6040F8BD000017
:1040E00066F1CC3EAAAA2A3FF4FD0538F40400008C
:1040F0000070313FAA04000021ED423E0A1180BE4B
:10410000C1ABAA3EFFFFFFBEF8B506460C46FDF761
:1041100029F8051E0F4600D00120014349000B4835
:104120004908411AC90F0DD0002E01D0012100E02D
:1041300000210C4361004908401AC00F02D1012040
:10414000FDF70AF828463946F8BD00000000F07F68
:1041500070B50546FDF7A8F841000446FF20490860
:10416000C005411AC90F07D069004908401AC00F9D
:1041700002D10120FCF7F0FF204670BD70B501258B
:10418000ED0704004C4020D4441A01D2001B091949
:10419000C60D4B00F2B2FF2A29D01B0E2CD0000214
:1041A0000C0228432C43D31ADC40051910D2280AEC
:1041B00002D3401C6D0611D0761EF6058019FF2A29
:1041C00000DA70BDC00DC00570BD694000F0CEF8CA
:1041D00001200543C541521C761CE8E764089C4059
:1041E000C90161408900E7D10124A043E4E71B0E27
:1041F000440200D0034870BD002AFCD1C00FC007A4
:1042000070BD00BF0000C07F0123DB0502000A4330
:104210000DD4DA4203D49A4207D488427047D84278
:1042200014D4D94212D48842704780427047DA428F
:1042300003D59A42F9D5814270475B004200DA42C9
:1042400004D24A00DA4201D28142704710B5024AD4
:10425000FDF776F810BD00BF090013040123DB054C
:1042600002000A430DD4DA4203D49A4207D48842AA
:104270007047D84214D4D94212D488427047804241
:104280007047DA4203D59A42F9D5814270475B0004
:104290004200DA4204D24A00DA4201D28142704737
:1042A00010B5024AFDF74CF810BD00BF0900160416
:1042B00070B5420064414B005C41120E39D01B0EB8
:1042C00038D0FF2A3CD0FF2B3AD0D2187F3A400298
:1042D0004902400A490A4518ED0106004E43000A0A
:1042E000090A48430104731A4019190C4318990F1D
:1042F00004D05B08012149075B1A521CD80904D37A
:10430000401CF50301D19D0607D0FF2A08D2D50530
:1043100006D0E4072043401970BD0125A843F4E707
:10432000002A01DCE00770BD2402FF202043C00505
:1043300070BD1B0EFF2A03D0FF2B01D0E00770BD1C
:10434000FF2636064500B54206D84D00B54203D8D3
:10435000D218FF2A00D0E7E7004870BD0000C07FF8
:1043600070B50125ED0704004C4022D4441A02D256
:104370006C40001B0919C60D4B00F2B2FF2A4BD04E
:104380001B0E50D000020C02A8432C43D31ADC4071
:10439000051B05D5AD0019D36D08761E521E37D00A
:1043A000F605280A01D2801970BD70416D0603D050
:1043B00070BD6940FFF7E8FE9C400902614049007A
:1043C00001D0401E70BD0124A04370BD6D081DD0FA
:1043D00001202B0C01D12D0410302B0E01D12D0208
:1043E00008302B0F01D12D01001DAB0F01D1AD0005
:1043F000801CEB0F01D16D00401C361A121A6D00A3
:10440000680AF5054019012A02DB70BD002070BD65
:10441000C036300AC00770BD1B0E440201D1FF2B0D
:1044200000D1024870BD002AF0D070BD0000C07FEE
:1044300080807F7E7D7C7B7A7978777676757473E1
:10444000727171706F6E6E6D6C6C6B6A6A696868A0
:10445000676666656464636362616160605F5F5E36
:104460005E5D5D5C5C5B5B5A5A59595858575756AC
:104470005655555554545353525252515150505011
:104480004F4F4F4E4E4D4D4D4C4C4C4B4B4B4A4A63
:104490004A494949484848474747474646464545A7
:1044A00045444444444343434342424242414141E0
:1044B0008182838485868788898B8C8D8E8F91926B
:1044C00093959697999A9C9D9FA0A2A3A5A7A8AA09
:1044D000ACAEB0B2B3B5B7B9BCBEC0C2C5C7C9CC2B
:1044E000CED1D4D7D9DCDFE2E6E9ECF0F3F7FAFE7F
:1044F000000000000030F13D0070643E0000A33E6B
:104500000090CF3E0090F83E00400F3F00E0203F7B
:104510000000000015B78337CDE37B380EE1C538C6
:1045200060F69138AF5F0F38E1BC3E3823F447396D
:1045300008000002100000041800000620004000DF
:10454000280040023000400438004006400080004F
:104550004800800250008004580080066000C000BF
:104560006800C0027000C0047800C006800000012E
:10457000880000039000000598000007A00040019B
:10458000A8004003B0004005B8004007C00080010B
:10459000C8008003D0008005D8008007E000C0017B
:1045A000E800C003F000C005F800C00700010002E9
:1045B0000801080210010804180108062001800201
:1045C0002801480230014804380148064001000330
:1045D0004801880250018804580188066001800360
:1045E0006801C8027001C8047801C8068001080289
:1045F000880108039001080598010807A0018802B6
:10460000A8014803B0014805B8014807C0010803E4
:10461000C8018803D0018805D8018807E001880314
:10462000E801C803F001C805F801C8070802100234
:104630000002000410021004180210062002800478
:104640002802500230025004380250064002000591
:1046500048029002500290045802900660028005C1
:104660006802D0027002D0047802D00680020804EA
:10467000880210039002100598021007A002880417
:10468000A8025003B0025005B8025007C002080546
:10469000C8029003D0029005D8029007E002880576
:1046A000E802D003F002D005F802D00700030006AC
:1046B00008031006100318041803180620038006C8
:1046C00028039006300358043803580640030007B7
:1046D00048031007500398045803980660038007A6
:1046E000680390077003D8047803D806800308068F
:1046F000880318069003180598031807A003880676
:10470000A8039806B0035805B8035807C003080764
:10471000C8031807D0039805D8039807E003880753
:10472000E8039807F003D805F803D80708048004C5
:1047300010042004180420062804800530046004B6
:104740003804600640040006480488045004A004AD
:104750005804A00660041006680488057004E0048C
:104760007804E00688048006900420059804200759
:10477000A0040806A8048007B0046005B804600718
:10478000C0042006C8048806D004A005D804A007E9
:10479000E0041806E8048807F004E005F804E007E0
:1047A0000805200510058005180528062805900530
:1047B00030058805380568064005000748052007CC
:1047C000500580075805A806600508076805980584
:1047D000700588077805E80688059006980528077B
:1047E000A0052806A8059007B0052807B8056807A2
:1047F000C0051007C8059806D0059007D805A8077A
:10480000E0051807E8059807F0059807F805E80798
:10481000180630063806700640060007480680076E
:10482000500608075806B00660061007680690078D
:10483000700618077806F0068806A0069806300766
:10484000A806A007B0068807B8067007C0062007AC
:10485000C806A007D0062807D806B007E00630072C
:10486000E806A807F0069807F806F007480750077B
:104870003807980750076007580770076007C00798
:104880006807D0077807F0077007E007B807F00758
:10489000A807B007D807F007C807E007E807F00740
:1048A00000010000F048000030450000B8010000A1
:1048B00001050000000000000000000100010000F0
:1048C00000000000000201000000000000000000E5
:1048D00000000000000000001700000000000000C1
:1048E00000000000000200020000000000000300C1
:1048F0000000803F0000000043EC7F3FB00AC93C4D
:104900000FB17F3F2FFB483D6D4E7F3F05A9963D80
:104910006DC47E3F36BDC83D24137E3F73B2FA3D61
:10492000AC3A7D3F8340163E283B7C3FA2102F3E91
:10493000BE147B3FC2C5473E9DC7793F135C603EB6
:10494000F853783FCCCF783E07BA763F938E883EB7
:104950000BFA743F31A0943E4714733FE59AA03E92
:104960000809713FD47CAC3E9ED86E3F2A44B83EC5
:104970005E836C3F15EFC33EA7096A3FCA7BCF3EFB
:10498000D86B673F80E8DA3E59AA643F7533E63E4C
:1049900098C5613FEA5AF13E05BE5E3F275DFC3E89
:1049A0001A945B3F3D9C033F5348583F9BF5083F9B
:1049B00031DB543FDA390E3F3D4D513F2A68133FFA
:1049C000029F4D3FC07F183F12D1493FD17F1D3F0D
:1049D00003E4453F9967223F70D8413F5636273F51
:1049E000F9AE3D3F4AEB2B3F4268393FBB85303F34
:1049F000F304353FF304353FBB85303F4268393F10
:104A00004AEB2B3FF9AE3D3F5636273F70D8413F2A
:104A10009967223F03E4453FD17F1D3F12D1493FB3
:104A2000C07F183F029F4D3F2A68133F3D4D513FC5
:104A3000DA390E3F31DB543F9BF5083F5348583F6E
:104A40003D9C033F1A945B3F275DFC3E05BE5E3FE5
:104A5000EA5AF13E98C5613F7533E63E59AA643F74
:104A600080E8DA3ED86B673FCA7BCF3EA7096A3F32
:104A700015EFC33E5E836C3F2A44B83E9ED86E3F1E
:104A8000D47CAC3E0809713FE59AA03E4714733FC1
:104A900031A0943E0BFA743F938E883E07BA763F5E
:104AA000CCCF783EF853783F135C603E9DC7793F8A
:104AB000C2C5473EBE147B3FA2102F3E283B7C3F21
:104AC0008340163EAC3A7D3F73B2FA3D24137E3FDD
:104AD00036BDC83D6DC47E3F05A9963D6D4E7F3FF6
:104AE0002FFB483D0FB17F3FB00AC93C43EC7F3FED
:104AF000000000000000803FB00AC9BC43EC7F3FCB
:104B00002FFB48BD0FB17F3F05A996BD6D4E7F3F7E
:104B100036BDC8BD6DC47E3F73B2FABD24137E3F5F
:104B2000834016BEAC3A7D3FA2102FBE283B7C3F8F
:104B3000C2C547BEBE147B3F135C60BE9DC7793FB4
:104B4000CCCF78BEF853783F938E88BE07BA763FB5
:104B500031A094BE0BFA743FE59AA0BE4714733F90
:104B6000D47CACBE0809713F2A44B8BE9ED86E3FC3
:104B700015EFC3BE5E836C3FCA7BCFBEA7096A3FF9
:104B800080E8DABED86B673F7533E6BE59AA643F4A
:104B9000EA5AF1BE98C5613F275DFCBE05BE5E3F87
:104BA0003D9C03BF1A945B3F9BF508BF5348583F99
:104BB000DA390EBF31DB543F2A6813BF3D4D513FF8
:104BC000C07F18BF029F4D3FD17F1DBF12D1493F0B
:104BD000996722BF03E4453F563627BF70D8413F4F
:104BE0004AEB2BBFF9AE3D3FBB8530BF4268393F32
:104BF000F30435BFF304353F426839BFBB85303F0E
:104C0000F9AE3DBF4AEB2B3F70D841BF5636273F28
:104C100003E445BF9967223F12D149BFD17F1D3FB1
:104C2000029F4DBFC07F183F3D4D51BF2A68133FC3
:104C300031DB54BFDA390E3F534858BF9BF5083F6C
:104C40001A945BBF3D9C033F05BE5EBF275DFC3EE3
:104C500098C561BFEA5AF13E59AA64BF7533E63E72
:104C6000D86B67BF80E8DA3EA7096ABFCA7BCF3E30
:104C70005E836CBF15EFC33E9ED86EBF2A44B83E1C
:104C8000080971BFD47CAC3E471473BFE59AA03EBF
:104C90000BFA74BF31A0943E07BA76BF938E883E5C
:104CA000F85378BFCCCF783E9DC779BF135C603E88
:104CB000BE147BBFC2C5473E283B7CBFA2102F3E1F
:104CC000AC3A7DBF8340163E24137EBF73B2FA3DDB
:104CD0006DC47EBF36BDC83D6D4E7FBF05A9963DF4
:104CE0000FB17FBF2FFB483D43EC7FBFB00AC93CEB
:104CF000000080BF0000000043EC7FBFB00AC9BCC9
:104D00000FB17FBF2FFB48BD6D4E7FBF05A996BD7C
:104D10006DC47EBF36BDC8BD24137EBF73B2FABD5D
:104D2000AC3A7DBF834016BE283B7CBFA2102FBE8D
:104D3000BE147BBFC2C547BE9DC779BF135C60BEB2
:104D4000F85378BFCCCF78BE07BA76BF938E88BEB3
:104D50000BFA74BF31A094BE471473BFE59AA0BE8E
:104D6000080971BFD47CACBE9ED86EBF2A44B8BEC1
:104D70005E836CBF15EFC3BEA7096ABFCA7BCFBEF7
:104D8000D86B67BF80E8DABE59AA64BF7533E6BE48
:104D900098C561BFEA5AF1BE05BE5EBF275DFCBE85
:104DA0001A945BBF3D9C03BF534858BF9BF508BF97
:104DB00031DB54BFDA390EBF3D4D51BF2A6813BFF6
:104DC000029F4DBFC07F18BF12D149BFD17F1DBF09
:104DD00003E445BF996722BF70D841BF563627BF4D
:104DE000F9AE3DBF4AEB2BBF426839BFBB8530BF30
:104DF000F30435BFF30435BFBB8530BF426839BF0C
:104E00004AEB2BBFF9AE3DBF563627BF70D841BF26
:104E1000996722BF03E445BFD17F1DBF12D149BFAF
:104E2000C07F18BF029F4DBF2A6813BF3D4D51BFC1
:104E3000DA390EBF31DB54BF9BF508BF534858BF6A
:104E40003D9C03BF1A945BBF275DFCBE05BE5EBFE1
:104E5000EA5AF1BE98C561BF7533E6BE59AA64BF70
:104E600080E8DABED86B67BFCA7BCFBEA7096ABF2E
:104E700015EFC3BE5E836CBF2A44B8BE9ED86EBF1A
:104E8000D47CACBE080971BFE59AA0BE471473BFBD
:104E900031A094BE0BFA74BF938E88BE07BA76BF5A
:104EA000CCCF78BEF85378BF135C60BE9DC779BF86
:104EB000C2C547BEBE147BBFA2102FBE283B7CBF1D
:104EC000834016BEAC3A7DBF73B2FABD24137EBFD9
:104ED00036BDC8BD6DC47EBF05A996BD6D4E7FBFF2
:104EE0002FFB48BD0FB17FBFB00AC9BC43EC7FBFE9
:104EF00000000080000080BFB00AC93C43EC7FBFC7
:104F00002FFB483D0FB17FBF05A9963D6D4E7FBF7A
:104F100036BDC83D6DC47EBF73B2FA3D24137EBF5B
:104F20008340163EAC3A7DBFA2102F3E283B7CBF8B
:104F3000C2C5473EBE147BBF135C603E9DC779BFB0
:104F4000CCCF783EF85378BF938E883E07BA76BFB1
:104F500031A0943E0BFA74BFE59AA03E471473BF8C
:104F6000D47CAC3E080971BF2A44B83E9ED86EBFBF
:104F700015EFC33E5E836CBFCA7BCF3EA7096ABFF5
:104F800080E8DA3ED86B67BF7533E63E59AA64BF46
:104F9000EA5AF13E98C561BF275DFC3E05BE5EBF83
:104FA0003D9C033F1A945BBF9BF5083F534858BF95
:104FB000DA390E3F31DB54BF2A68133F3D4D51BFF4
:104FC000C07F183F029F4DBFD17F1D3F12D149BF07
:104FD0009967223F03E445BF5636273F70D841BF4B
:104FE0004AEB2B3FF9AE3DBFBB85303F426839BF2E
:104FF000F304353FF30435BF4268393FBB8530BF0A
:10500000F9AE3D3F4AEB2BBF70D8413F563627BF24
:1050100003E4453F996722BF12D1493FD17F1DBFAD
:10502000029F4D3FC07F18BF3D4D513F2A6813BFBF
:1050300031DB543FDA390EBF5348583F9BF508BF68
:105040001A945B3F3D9C03BF05BE5E3F275DFCBEDF
:1050500098C5613FEA5AF1BE59AA643F7533E6BE6E
:10506000D86B673F80E8DABEA7096A3FCA7BCFBE2C
:105070005E836C3F15EFC3BE9ED86E3F2A44B8BE18
:105080000809713FD47CACBE4714733FE59AA0BEBB
:105090000BFA743F31A094BE07BA763F938E88BE58
:1050A000F853783FCCCF78BE9DC7793F135C60BE84
:1050B000BE147B3FC2C547BE283B7C3FA2102FBE1B
:1050C000AC3A7D3F834016BE24137E3F73B2FABDD7
:1050D0006DC47E3F36BDC8BD6D4E7F3F05A996BDF0
:1050E0000FB17F3F2FFB48BD43EC7F3FB00AC9BCE7
:1050F00000510000000020202014000028010000C2
:04000005000000C136
:00000001FF
