:020000040000FA
:10000000B01420206D010000710100007301000098
:1000100000000000000000000000000000000000E0
:10002000000000000000000000000000750100005A
:100030000000000000000000770100009D38000073
:100040007B0100007B0100007B0100007B010000C0
:10005000791400007B0100007B0100007B0100009F
:10006000000000007B0100007B0100000000000098
:10007000000000007B0100007B0100007B0100000C
:100080007B0100007B0100007B0100007B01000080
:100090007B0100007B010000000000000000000068
:1000A0007B0100007B010000000000000000000058
:1000B0007B010000000000007B0100007B010000CC
:1000C00000F002F800F042F812A030C808382418F6
:1000D0002D18AC4201D100F039F80FCCA246AB4646
:1000E0000CA730CF2D1B083F3F197C427F1E544484
:1000F0002D090426F441641EAC4201D300F026F819
:100100000126334200D0FB1A3343984754465D46DC
:10011000DFE70000EC840000FC8400000000000029
:100120007047000000000000002300240025002686
:10013000103A01D378C1FBD8520700D330C100D5A3
:100140000B6070471FB51FBD10B510BD01F016F94B
:100150001146FFF7F7FF04F0EFFE01F02EF903B4AC
:10016000FFF7F2FF03BC01F07FF9000006480047EB
:10017000FEE7FEE7FEE7FEE7FEE7FEE70348044989
:10018000024A044B70470000C1000000B013202059
:10019000B0142020B0132020002203098B4273D317
:1001A000030A8B4258D3030B8B423CD3030C8B4284
:1001B00021D312E003460B437FD4002243088B4235
:1001C00074D303098B425FD3030A8B4244D3030BDE
:1001D0008B4228D3030C8B420DD30902FF2212BAA3
:1001E000030C8B4202D31212090265D0030B8B421F
:1001F00019D300E0090AC30B8B4201D3CB03C01A09
:100200005241830B8B4201D38B03C01A5241430BE3
:100210008B4201D34B03C01A5241030B8B4201D3D3
:100220000B03C01A5241C30A8B4201D3CB02C01A3E
:100230005241830A8B4201D38B02C01A5241430AB6
:100240008B4201D34B02C01A5241030A8B4201D3A5
:100250000B02C01A5241CDD2C3098B4201D3CB014C
:10026000C01A524183098B4201D38B01C01A5241FB
:1002700043098B4201D34B01C01A524103098B42FF
:1002800001D30B01C01A5241C3088B4201D3CB00EA
:10029000C01A524183088B4201D38B00C01A5241CD
:1002A00043088B4201D34B00C01A5241411A00D27D
:1002B00001465241104670475DE0CA0F00D04942E6
:1002C000031000D3404253409C46002203098B4256
:1002D0002DD3030A8B4212D38901FC2212BA030ADE
:1002E0008B420CD3890192118B4208D38901921160
:1002F0008B4204D389013AD0921100E08909C309E5
:100300008B4201D3CB01C01A524183098B4201D3E6
:100310008B01C01A524143098B4201D34B01C01AD1
:10032000524103098B4201D30B01C01A5241C30849
:100330008B4201D3CB00C01A524183088B4201D3B8
:100340008B00C01A5241D9D243088B4201D34B00D3
:10035000C01A5241411A00D201465241104663462A
:100360005B1001D34042002B00D5494270476346E1
:100370005B1000D3404201B50449002802DC491C4F
:10038000084000E00846C046C04602BDFFFFFF7FB0
:1003900070477047704700000246C80FC00781438E
:1003A0004B0030B54B405B009B0D20D01923DB0682
:1003B000C91801231B05994220DB0324A407042547
:1003C0001346AB400BD3002B04D1EB0613409B002C
:1003D000E34204D401246407002312195941FF2386
:1003E0001B0599420BD2C9000143500F09E0CB0213
:1003F00004D501430803024305D0054830BDFF2161
:10040000C905084330BD084607210905884330BDAA
:100410000000C07FF0B50C46871A9C410D46861A35
:100420009D4103D2C01BA141D21963410D0D1F0D87
:10043000C94EEC1BAE435CD07F057F0D0026002F1C
:1004400051D02D05AC46A943DD020123ED0A1B0561
:100450001D4320231B1B24D41746E7403818714145
:100460002F46E740CC199D402818314661410C0DBC
:1004700027D161449A4013D50023401C59415200B2
:100480000ED14008400001224B005205D34207D351
:1004900005204007C14201D5B04900E0B0493046CF
:1004A000F0BD6B00002A00D001229A181F23203CC7
:1004B0001B1B01D5002302E0E540281871410C0DFB
:1004C000D7D0012424050919C407CD0740084908DD
:1004D000E40F28436144002CD5D00024401C614126
:1004E0009A40D0D1CDE76A05520DD9D1C90FC907BD
:1004F000D5E79C4D4E00002801D0012400E00024E7
:1005000034195F00002A01D0012600E00026BE1940
:10051000954FAC420CD8AE420AD8B44206D0012561
:100520006D05EC42BCD010461946F0BD9942FCD096
:1005300000203946F0BDF0B51FB40C460F46811AB5
:100540009F412546861A9D4106D20125ED076F4041
:10055000401ABC4152187B41210D1E0D8D1BAC462B
:100560007D4D8D437ED075056D0D7CD00D05AE465D
:10057000AC431B031B0B794D52429D412023664621
:100580009B1B14D31746F74038180026009074417F
:1005900060462F460741E41900989D40281866419F
:1005A00016D4714671189A4025D5012320E093187E
:1005B0002A466A415200002B00D0521C1E23203EC6
:1005C0009B1B002B61DD3541EE1728186641E8D5ED
:1005D000001876415B1C9A4000D3401C4B05F31871
:1005E0001524E34010D3002B52D071467118D30F5D
:1005F000C01802D3491C05B0F0BD0123DB079A42A5
:10060000F9D140084000F6E701225205B21801D1A5
:10061000002853D00123CC0ADB029943891E002A0B
:1006200008D1020C03D0020C0004103902E002468B
:10063000002020390023550B05D112020823550B49
:1006400001D152010D23550C01D112011B1DD50CF6
:1006500001D192009B1C150D01D152005B1C20257D
:10066000EE1A01E02CE022E00546F54015439840E3
:10067000CA1AE10769181305C918002ABBDA032052
:1006800040070818C10FC9070FE071466118B2E7AB
:10069000F10740080843711071444A000CD001234F
:1006A0005B059A42A7D2C90FC9070020A3E74905F5
:1006B000490D26D1002001E00028F4D100219AE75D
:1006C000284D6600002801D0012100E000217118AA
:1006D0005F00002A01D0012600E00026BE19224F4B
:1006E000A94210D8AE420ED8B14208D001256D05FE
:1006F000E94206D01946A802414010467BE79C42D9
:1007000001D0214677E70020394674E710B50C4642
:100710005C4005D50124E4076340FFF70CFF10BDE2
:10072000FFF778FE10BD30B40C465C4004D50124C0
:10073000E407634030BC6DE630BCFCE670B50124D4
:10074000E40761400D465D4002D4FFF763FE70BDD3
:100750006340FFF7F0FE70BDFF0700000000F0FFF0
:100760000000F07F0000E0FF0000F87FF0B5F94DD9
:100770000C091E092C402E402F468BB0A7437DD07C
:10078000B543FCD0002E7AD0002CFCD00D465D4045
:10079000ED0F2543AC1BFF25AD0464190894C50279
:1007A000440DC9022143500DDC0204430120C0075F
:1007B00001430443D2020191200C110C00958C4698
:1007C000010423468B430A9161460904E24D8A43A2
:1007D0000991010A7D4449198039097805464D433C
:1007E00001266D18F605751B6943C90C640B891C3D
:1007F0004C436418B5012C1B250C2E04B4434C4308
:100800004D43210C691889090591009DE90701D024
:100810000121C90704912C4601996708CD072F4390
:100820004C08059DE10B4D432D0C2946664675434A
:1008300002950D4645432E46029D7D1BB441009511
:100840000D465D4301942C0C2F040D465543AE46D6
:100850002D0C3D43029503947546049C2D04641BA6
:10086000049406D2029C039D641C002675410395E6
:10087000029401AC70CC009F7D1B01E03EE162E17F
:10088000B44109040095079101940599A4086143B6
:10089000090C0C464443650BE7040C46664674435A
:1008A000A646640B3C43039502947446049DE404FD
:1008B0002C1B049406D2029C039D641C00267541E7
:1008C0000395029401AC70CC009F7D1BB441019450
:1008D0000C465C430095650FE7000C465443A64662
:1008E000640F3C43039502947446049DE4002C1B62
:1008F000049406D2029C039D641C00267541039556
:10090000029401AC70CC009F7D1BB441AE09AF06D0
:10091000049DC900AD092F43049DA406AD060495AE
:10092000079D344369180791059DE10B4D432D0C3C
:1009300029466646754302950D4645432E46029D5F
:100940007D1BB44100950D465D4301942C0C2F0492
:100950000D465543AE462D0C3D4302950394754616
:10096000049C2D04641B049406D2029C039D641C09
:10097000002675410395029401AC70CC009F7D1B4D
:10098000B44101948C050694079C890A611800956E
:100990000791019C0599A4086143090C0D46454344
:1009A000680BEF040D46644665436C0B3C43049FA3
:1009B000ED047D1BAC4602D20025641C6841009EFC
:1009C000019D371B85410846584301950C46460F4B
:1009D000C5005443600F28436546E4002C1B02D237
:1009E0000025401C6E41019D3F1AB5412846BD09B6
:1009F000800628438446A009BF064E020699A40635
:100A000076180743079D002068410A99079019430B
:100A10000020099B00906046FF1913434041E20FFC
:100A200064003A43A4460446D71A8C41A04203D935
:100A30000120009020463A46C70F94184041624674
:100A4000D20F2243644664000494009CBE466400B6
:100A5000D71AA446044602978C417746002F01D14D
:100A6000A04204D96046401C8446029A2046C40F26
:100A7000A64694184041049A0546D20F2243644684
:100A80006400D31A8D417146002901D1A84202D9D0
:100A900028461A46641C10430122002800D0164341
:100AA00061020020079B891904465C410223002C47
:100AB00002DB491813466441089DCE0A2D145D19C6
:100AC0004B056705E10A2C050D1908993E43C90736
:100AD0006940002B08D0934006D30022761C514178
:100AE000002B01D1760876001C4A002D43DB15420D
:100AF00041D0AA433FD030460BB0F0BD06180D469A
:100B00004D41174C7642AC411AD395181C465C41B6
:100B1000134A6D42A24113D3012252054C00D44224
:100B20000AD15C00D4420BD04B4002D59202114353
:100B3000E2E749004908DFE75940C90FC90718E053
:100B400000200849D8E7054801420DD10342F7D0FB
:100B5000F2E700000000FF077C5700000000F07F74
:100B60000000E0FF0000F87F114859400143C01227
:100B700041400020C0E70123089A9B069A4205DC09
:100B8000032252078918C90FC907B5E70522520782
:100B90008918074A1143D2125140ADE770B5154686
:100BA0001C4602460B4628462146FFF7DFFD70BD76
:100BB000FFFFFF7F30B50346CA02400D1043164DBC
:100BC000164C0A1502D02043002A06DBAA1A002A76
:100BD00012DDD040FF2A0BDC30BD5205520D01D191
:100BE00040004008AA1A07D4D0404042FF2A01DD45
:100BF000002030BD0028FCDD4A00002B01D0012080
:100C000000E00020101801225205D042F0D8C81789
:100C1000C043604030BD00001E04000000000080A2
:100C20001F22030C02D10F22000402D0030E03D0B6
:100C300004E00020014670470002083A030F01D18A
:100C40000001121F830F01D18000921E002801DBDA
:100C50004000521E120551184205C012411810469C
:100C60007047C10FC90700D04042012292071143CB
:100C7000D6E701218907D3E7F0B58B4C0F0925464C
:100C800089B0BD437BD01D092646AE43FAD00E463F
:100C90005E402740F60F3E43254071D0240121429B
:100CA000FBD0FF24AD19A4042D1B039501252D05B0
:100CB000DB02DB0AC9022B43C90A29431E010901D1
:100CC000040F130F050121431701880B8203914381
:100CD0002D098C46A90B1E438A039543B30B9A0337
:100CE00096433F09BA0B9403A74302962E467E43D0
:100CF0000497B6464E19D7190C46019654430597EA
:100D00007E43371B7646BF1B3601B646BE0B3619EF
:100D100000967646BC043719009C01D3641C0094ED
:100D20006400002F01D001263443029E049F7543C6
:100D300066467E430496760034196E00341900949A
:100D4000029C019E1C196643751BAE4606946546BF
:100D50004519059C05956C43594375460891691AD8
:100D60000191049E01465143A41B0491611A009C09
:100D70000791E10605D061090122114302E072E00A
:100D80006EE06109089D00272C0A2D066918049D54
:100D90007C412A0A2D066918019D6241AC0DAD0205
:100DA0006D185441079A910D920255196141029AAA
:100DB000644658435443069B059A5A43121A131B20
:100DC0009A0E9B015B187A41010B0005C318514133
:100DD000220A200644195A419A4200D2491C012095
:100DE0004002814203D315230226F64302E0142376
:100DF0000326F6432020C51AA9401746AF40DA4023
:100E00000A4320460399D84009147318190551184C
:100E1000039A3843D2075140AC4009D00122944094
:100E200006D30022401C5141002C01D14008400053
:100E30001E4A934212D3012203989206904207DB86
:100E40000520400709181A480143C012414004E038
:100E5000032040070818C10FC907002009B0F0BDE2
:100E60000020F107FAE705180C464C4111486D4285
:100E7000A04115D394181A465A410E486442904135
:100E80000ED301204A004005824209D35A00824213
:100E900006D35940C90F084AC90700201143DDE7AE
:100EA00000200649DAE700000000FF07FE07000007
:100EB000FFFFFF7F0000E0FF0000F07F0000F87FF1
:100EC0000121C9050123411842001B06D3185B0EFE
:100ED0000AD0C1100722D206891840075242D142D7
:100EE00001D5520089187047090208D50146002A29
:100EF00003D0C10FC9070020704710467047420257
:100F000002D0002002497047072109050143F4E798
:100F10000000F87FF0B5FF252D04C609C209FF27A0
:100F200004462E400137CB093E4348402A402B401F
:100F30000746002A6BD0002B69D0AA4267D0AB428B
:100F400065D0002800DA32460125ED0529432C43FF
:100F500009022002090AD21A4B0C7F24E31A434CDF
:100F6000000A7C44E35C7D242404121914145B0001
:100F7000A218884201D3521C00E0400049420C46AE
:100F80005C4324115C43DB016415E318040A5C43F1
:100F9000C502200D0C4644436419250A5D43230312
:100FA000EC0C0D46654300030019EB184C42A342BC
:100FB00001D35B18401CD4052018002B07D05B0020
:100FC000C91804D3401C002901D1400840003F212A
:100FD00089048A4209D3002A08DC1106090F04D0CB
:100FE000032149074018C00FC007F0BD012241008E
:100FF000120689187F2252069142F6D2052149072E
:10100000C84201D59010F0BDFF20C005F0BD002FF3
:1010100000DA32461648AA4207D2AB4205D219027C
:10102000090E17D0F80FC007F0BDFF2563002D068D
:10103000AB42F9D84900A942F6D8AB4201D1A94246
:10104000F2D0A94201D1002101E061004908D00598
:101050000843F0BD1102090EFBD0FF200243D0056A
:10106000F0BD0A460146104654E700006E500000ED
:101070000000C07F10B501469E240002CA15A307D8
:10108000002A02D01843002A04DBA21A002A0CDD31
:10109000D04010BD1206120E01D140004008A21A25
:1010A00003D4D04040420028F3DDFF22480012065E
:1010B000904201D9002010BDC817C043584010BD50
:1010C0001F22030C02D10F2200041CD0030E01D1F9
:1010D0000002083A030F01D10001121F830F01D152
:1010E0008000921E002801DB4000521ED2055118DC
:1010F000021251181922904004D3491C002801D132
:101100004908490008467047C10FC90700D040424E
:10111000012292071143D3E701218907D0E710B5D7
:1011200000F0F2F8006810BD10B5044600F0ECF8CD
:10113000046010BDF0B53D4B02460C461C4000203B
:10114000002C63D03A4D8B4366D000296BDB0B0D2E
:101150001D05A94301252D0529430124FD33E34045
:1011600001D392184941FF3381339C468B02940D81
:101170000121234389074C42920200271B198C103E
:101180005D1A04D42D1B02D42B4665004919921810
:101190005B416408F4D15C1A08D40125ED07EE1711
:1011A0005519744102D42A462346491C94185B41C0
:1011B000012292071D46E61B8D4106D4B61A8541D1
:1011C00003D42B46550034467F1924195B4152083D
:1011D000802AEFD1234300D0022338460A22D04090
:1011E00001D3012213438A0510436246890A12057E
:1011F0008918002B09D00122D34002D30022401CC1
:101200005141002B01D140084000F0BD0B031343B6
:1012100007D0C90FC907F0BD0803104303D1002947
:1012200001DB1046F0BD00202946F0BD0000F07F34
:101230000000F87F10B5FF22C30D134009D05A40BB
:1012400007D0914205DA5C42A14202DDC9050818C7
:1012500010BDC40FE407002B06D0002A06D00029D9
:1012600002DBFF20C0050443204610BD4102FCD034
:10127000004810BD0000C07F30B5C30D1906214ADB
:10128000090E31D0FF292FD000283ADB010250028D
:10129000014301207D33C34000D24908012080076B
:1012A0001724091A2406490882102343FF252D0616
:1012B0004C00211A04D4891A02D45400201800E0EA
:1012C000214652085B19F3D51A220446944007D3ED
:1012D00082068A4203D180218030884300E080303A
:1012E000C009D905081830BDFF2904D04100FAD043
:1012F000C00FC00730BD410201D0104630BD0028EC
:10130000FCDAFAE70000C07F0048704700002020A8
:1013100010B5FF231B0644009C421DD84C009C4284
:101320001AD80346124A0B4307D4401A02D3EFF3EC
:10133000008010BDEFF3008010BD081A03D3EFF357
:101340000080904305E0EFF3008001219043C9073E
:10135000084380F3008810BD0D231B041A4204D0FB
:101360001146002000F031F810BD00F045F810BD26
:101370000000009000487047000020207546FFF7ED
:10138000F9FFAE46050069465346C008C0008546D1
:1013900018B020B5FEF7F2FE60BCB6460026002766
:1013A000C0C5C0C5C0C5C0C5C0C5C0C5C0C5C0C515
:1013B000403D490849008D46704710B50446C04677
:1013C000C0462046FEF7CBFE10BDC80212D548032A
:1013D000400F002804D0C803C04301218840704753
:1013E000EFF300800001000903210907084380F39F
:1013F000008870470020704710B5024800F004F8DC
:1014000010BD00000000C07F10B50C461107090F89
:10141000092904D00A290AD008290CD104E0114670
:101420000820FFF7D2FF06E0510606D501E051067D
:1014300001D50120C007214610BDD10607D5010105
:101440000909CC084907000E0006044309E0410FD2
:1014500020024907000A0143200E00061D22D14147
:1014600001430846E7E7000001491820ABBEFEE74C
:1014700026000200704700000A480068C0B2062833
:101480000ED1094801210170080208490A68824307
:101490000A60074810210160BFF34F8FBFF36F8FC1
:1014A0007047C046201000409C13202004110040CB
:1014B00080E100E0F0B58DB00E460190046800298F
:1014C000089114D0012031460140012E00D042E1A4
:1014D000002220460029089E0AD09100019A515806
:1014E0008C4200D30C46884202D8084600E02046D1
:1014F000001BFFF711FE0B903046FFF70DFE0A9020
:101500002046FFF709FE099003200C90019C0C98DF
:10151000C51EA8B2FFF700FE01460A9804F05AFC67
:101520000F218906069104F055FCFFF7A3FD7543D2
:1015300080B28600A059FFF7EFFD05907C272F4071
:1015400080200790C01BFFF7E7FD059904F042FCDF
:10155000069D294604F03EFC0590A01926464068E9
:10156000FFF7DAFD04463846FFF7D6FD214604F0C2
:1015700031FC294604F02EFC0146059804F090FB4E
:10158000099904F07FFC0B99FFF7C4FC814904F032
:1015900021FCFFF76FFD80490C9A89180591C91E3F
:1015A0000870971EB8B2FFF7B7FD01460A9804F01D
:1015B00011FC294604F00EFCFFF75CFD08994F432F
:1015C00080B285007059FFF7A7FD04467F20029086
:1015D00007400798C01BFFF79FFD214604F0FAFB68
:1015E000069C214604F0F6FB049070194068FFF752
:1015F00093FD05463846FFF78FFD294604F0EAFBC8
:10160000214604F0E7FB0146049804F049FB0999E0
:1016100004F038FC0B99FFF77DFC5E4904F0DAFB1F
:10162000FFF728FD0599891E08700C98451EA8B281
:10163000FFF772FD01460A9804F0CCFB214604F046
:10164000C9FBFFF717FD08994D4380B28000049055
:10165000019E3058FFF760FD03907E272F400798CA
:10166000C01BFFF759FD039904F0B4FB214604F0B9
:10167000B1FB0390049830184068FFF74DFD054614
:101680003846FFF749FD294604F0A4FB25462146CC
:1016900004F0A0FB0146039804F002FB099904F052
:1016A000F1FB0B99FFF736FC3A4904F093FBFFF787
:1016B000E1FC0599491E08700C987F2849D03446F2
:1016C0000C9988B20E460C91FFF726FD01460A9848
:1016D00004F080FB294604F07DFBFFF7CBFC089F5C
:1016E000774380B285006059FFF716FD06460298E1
:1016F00007400798C01BFFF70FFD314604F06AFB57
:10170000069E314604F066FB079060194068FFF7BB
:1017100003FD05463846FFF7FFFC294604F05AFB57
:10172000314604F057FB0146079804F0B9FA0999CD
:1017300004F0A8FB0B99FFF7EDFB164904F04AFBF8
:10174000FFF798FC14490C9A8854121D0C92089EBD
:10175000DDE60DB0F0BD334683430022019D2046F7
:1017600004E00835921C934200D1B3E62E68B442DF
:1017700000D334466F68BC4204D2B04205D9B842A7
:10178000EFD805E03C46B042F9D83046B842E8D838
:101790003846E6E700007042E8042020B0B50A7839
:1017A000032313400B4A84580B4D2540EB18A92402
:1017B00024061B198350072212064B68134011247C
:1017C000240205599543EA1802510019497801612C
:1017D000B0BDC04608080000FCFFFF00811E091FC5
:1017E00000BFFCD270470000B0B51122120283582E
:1017F000174C1C408B888D681D43164B2B401B19C2
:1018000083508B890C681C438B7B2343124C1C40F8
:1018100080180269114B1340E2180261CA7B0B6900
:101820004C69134323430A8B1A430D4B1340026A3E
:101830000C4C14401A1902628A7E898B11430A4AA1
:101840000A40016B094B0B4099180163B0BDC046BB
:10185000FFFEFEFF0001010003030001FCFCFFFE90
:1018600001030301FEFCFCFE010F0000FEF0FFFF80
:10187000B0B5536894681C43938923431469556930
:101880001C43D3892B431B0123430C010419092555
:101890006D026351137852781A43BF231A408900AE
:1018A0004018034944589C43A2184250B0BDC0465A
:1018B00010110000B0B502480346F833802401E05F
:1018C00064002020002119701A46083A11701A4647
:1018D000103A11701A46183A11701A46203A1170CF
:1018E0001A46283A11701A46303A11701A46383A98
:1018F00011701A46403A11701A46483A11701A4649
:10190000503A11701A46583A11701A46603A1170DE
:101910001A46683A11701A46703A11701A46783AA7
:1019200011701A46803A11701A46883A11701A4698
:10193000903A11701A46983A11701A46A03A1170EE
:101940001A46A83A11701A46B03A11701A46B83AB7
:1019500011701A46C03A11701A46C83A11701A46E8
:10196000D03A11701A46D83A11701A46E03A1170FE
:101970001A46E83A11701A46F03A11701A46F83AC7
:101980001170012212029B18203C9BD10446F934AD
:10199000802321702546083D29702546103D297079
:1019A0002546183D29702546203D29702546283DAD
:1019B00029702546303D29702546383D2970254639
:1019C000403D29702546483D29702546503D2970E7
:1019D0002546583D29702546603D29702546683DBD
:1019E00029702546703D29702546783D2970254689
:1019F000803D29702546883D29702546903D2970F7
:101A00002546983D29702546A03D29702546A83DCC
:101A100029702546B03D29702546B83D29702546D8
:101A2000C03D29702546C83D29702546D03D297006
:101A30002546D83D29702546E03D29702546E83DDC
:101A400029702546F03D2970A518F83C2170203BEF
:101A50002C469ED10446FA34802321702546083D49
:101A600029702546103D29702546183D29702546C8
:101A7000203D29702546283D29702546303D297096
:101A80002546383D29702546403D29702546483D6C
:101A900029702546503D29702546583D2970254618
:101AA000603D29702546683D29702546703D2970A6
:101AB0002546783D29702546803D29702546883D7C
:101AC00029702546903D29702546983D2970254668
:101AD000A03D29702546A83D29702546B03D2970B6
:101AE0002546B83D29702546C03D29702546C83D8C
:101AF00029702546D03D29702546D83D29702546B8
:101B0000E03D29702546E83D29702546F03D2970C5
:101B1000A518F83C2170203B2C469ED10446FB348E
:101B2000802321702546083D29702546103D2970E7
:101B30002546183D29702546203D29702546283D1B
:101B400029702546303D29702546383D29702546A7
:101B5000403D29702546483D29702546503D297055
:101B60002546583D29702546603D29702546683D2B
:101B700029702546703D29702546783D29702546F7
:101B8000803D29702546883D29702546903D297065
:101B90002546983D29702546A03D29702546A83D3B
:101BA00029702546B03D29702546B83D2970254647
:101BB000C03D29702546C83D29702546D03D297075
:101BC0002546D83D29702546E03D29702546E83D4B
:101BD00029702546F03D2970A518F83C2170203B5E
:101BE0002C469ED10446FC34802321702546083DB6
:101BF00029702546103D29702546183D2970254637
:101C0000203D29702546283D29702546303D297004
:101C10002546383D29702546403D29702546483DDA
:101C200029702546503D29702546583D2970254686
:101C3000603D29702546683D29702546703D297014
:101C40002546783D29702546803D29702546883DEA
:101C500029702546903D29702546983D29702546D6
:101C6000A03D29702546A83D29702546B03D297024
:101C70002546B83D29702546C03D29702546C83DFA
:101C800029702546D03D29702546D83D2970254626
:101C9000E03D29702546E83D29702546F03D297034
:101CA000A518F83C2170203B2C469ED10446FD34FB
:101CB000802321702546083D29702546103D297056
:101CC0002546183D29702546203D29702546283D8A
:101CD00029702546303D29702546383D2970254616
:101CE000403D29702546483D29702546503D2970C4
:101CF0002546583D29702546603D29702546683D9A
:101D000029702546703D29702546783D2970254665
:101D1000803D29702546883D29702546903D2970D3
:101D20002546983D29702546A03D29702546A83DA9
:101D300029702546B03D29702546B83D29702546B5
:101D4000C03D29702546C83D29702546D03D2970E3
:101D50002546D83D29702546E03D29702546E83DB9
:101D600029702546F03D2970A518F83C2170203BCC
:101D70002C469ED10446FE34802321702546083D22
:101D800029702546103D29702546183D29702546A5
:101D9000203D29702546283D29702546303D297073
:101DA0002546383D29702546403D29702546483D49
:101DB00029702546503D29702546583D29702546F5
:101DC000603D29702546683D29702546703D297083
:101DD0002546783D29702546803D29702546883D59
:101DE00029702546903D29702546983D2970254645
:101DF000A03D29702546A83D29702546B03D297093
:101E00002546B83D29702546C03D29702546C83D68
:101E100029702546D03D29702546D83D2970254694
:101E2000E03D29702546E83D29702546F03D2970A2
:101E3000A518F83C2170203B2C469ED1FF30802312
:101E400001700446083C21700446103C2170044691
:101E5000183C21700446203C21700446283C217027
:101E60000446303C21700446383C21700446403C16
:101E700021700446483C21700446503C21700446C1
:101E8000583C21700446603C21700446683C217037
:101E90000446703C21700446783C21700446803C26
:101EA00021700446883C21700446903C2170044611
:101EB000983C21700446A03C21700446A83C217047
:101EC0000446B03C21700446B83C21700446C03C36
:101ED00021700446C83C21700446D03C2170044661
:101EE000D83C21700446E03C21700446E83C217057
:101EF0000446F03C21708418F8380170203B2046DD
:101F00009ED100F0B1FEB0BDF0B583B001256805EB
:101F1000FC4908600C46103C2060A80508600422BB
:101F20000A602E030E60AB03236026600E600B6018
:101F300026600E60236026600E600B6026600E60D7
:101F4000236026600E60236026600E60236026609A
:101F50000E600B6026602260206008600A600E60E0
:101F60000B6026600E600B6026600E600B602660C2
:101F70000E600B6026600E600B6026600E600B60CA
:101F800026600E600B6026600E600B60266022608B
:101F9000206008600A600E600B6026600E600B60B7
:101FA00026600E600B6026600E60236026600E6067
:101FB0000B6026600E600B6026600E600B60266072
:101FC0000E600B6026602260206008600A600E6070
:101FD0000B6026600E60236026600E600B6026603A
:101FE0000E600B6026600E600B6026600E600B605A
:101FF00026600E600B6026600E600B60266022601B
:10200000206008600A600E60236026600E600B602E
:1020100026600E600B6026600E600B6026600E600E
:102020000B6026600E600B6026600E600B60266001
:102030000E60236026602260206008600A600E60E7
:10204000236026600E60236026600E600B602660B1
:102050000E600B6026600E60236026600E602360B9
:1020600026600E60236026600E602360266022607A
:10207000206008600A600E60236026600E600B60BE
:1020800026600E60236026600E600B6026600E6086
:102090000B6026600E600B6026600E600B60266091
:1020A0000E60236026602260206008600A600E6077
:1020B000236026600E60236026600E600B60266041
:1020C0000E600B6026600E60236026600E600B6061
:1020D00026600E600B6026600E600B60266022603A
:1020E000206008600A600E60236026600E600B604E
:1020F00026600E60236026600E600B6026600E6016
:102100000B6026600E60236026600E6023602660F0
:102110000E600B6026602260206008600A600E601E
:10212000236026600E600B6026600E6023602660D0
:102130000E600B6026600E60236026600E600B60F0
:1021400026600E600B6026600E600B6026602260C9
:10215000206008600A600E600B6026600E600B60F5
:1021600026600E60236026600E60236026600E608D
:10217000236026600E60236026600E602360266068
:102180000E60236026602260206008600A600E6096
:10219000236026600E60236026600E600B60266060
:1021A0000E60236026600E600B6026600E600B6080
:1021B00026600E60236026600E6023602660226029
:1021C000206008600A600E600B6026600E600B6085
:1021D00026600E600B6026600E600B6026600E604D
:1021E0000B6026600E600B6026600E600B60266040
:1021F0000E600B6026602260206008600A600E603E
:10220000236026600E60236026600E600B602660EF
:102210000E60236026600E600B6026600E602360F7
:1022200026600E600B6026600E60236026602260D0
:10223000206008600A600E60236026600E600B60FC
:1022400026600E600B6026600E600B6026600E60DC
:102250000B6026600E600B6026600E600B602660CF
:102260000E600B6026602260206008600A600E60CD
:10227000236026600E60236026600E600B6026607F
:102280000E60236026600E60236026600E600B6087
:1022900026600E600B6026600E6023602660226060
:1022A000206008600A600E60236026600E60236074
:1022B00026600E60236026600E60236026600E603C
:1022C0000B6026600E600B6026600E600B6026605F
:1022D0000E60236026602260206008600A600E6045
:1022E000236026600E60236026600E600B6026600F
:1022F0000E60236026600E60236026600E600B6017
:1023000002E0C046A0120A4026600E6023602660EC
:102310000E600B6026602260206008600A600E601C
:102320000B6026600E600B6026600E600B602660FE
:102330000E60236026600E600B6026600E600B60EE
:1023400026600E60236026600E600B6026602260AF
:10235000206008600A600E60236026600E602360C3
:1023600026600E600B6026600E60236026600E60A3
:10237000236026600E600B6026600E60236026607E
:102380000E60236026602260206008600A600E6094
:102390000B6026600E60236026600E600B60266076
:1023A0000E600B6026600E600B6026600E600B6096
:1023B00026600E600B6026600E600B602660226057
:1023C000206008600A600E600B6026600E600B6083
:1023D00026600E60236026600E600B6026600E6033
:1023E0000B6026600E600B6026600E600B6026603E
:1023F0000E600B6026602260206008600A600E603C
:102400000B6026600E600B6026600E600B6026601D
:102410000E600B6026600E600B6026600E600B6025
:1024200026600E60236026600E600B6026602260CE
:10243000206008600A600E60236026600E600B60FA
:1024400026600E600B6026600E600B6026600E60DA
:10245000236026600E60236026600E600B6026609D
:102460000E60236026602260206008600A600E60B3
:102470000B6026600E600B6026600E600B602660AD
:102480000E60236026600E600B6026600E60236085
:1024900026600E600B6026600E600B602660226076
:1024A000206008600A600E60236026600E600B608A
:1024B00026600E60236026600E600B6026600E6052
:1024C0000B6026600E60236026600E600B60266045
:1024D0000E600B6026602260206008600A600E605B
:1024E000236026600E600B6026600E60236026600D
:1024F0000E600B6026600E600B6026600E6023602D
:1025000026600E60236026600E6000930B602660DC
:1025100001922260029020602846024F3946F8312D
:10252000802501E06400202000220A700B46083B51
:102530001A700B46103B1A700B46183B1A700B466C
:10254000203B1A700B46283B1A700B46303B1A7022
:102550000B46383B1A700B46403B1A700B46483B03
:102560001A700B46503B1A700B46583B1A700B46BC
:10257000603B1A700B46683B1A700B46703B1A7032
:102580000B46783B1A700B46803B1A700B46883B13
:102590001A700B46903B1A700B46983B1A700B460C
:1025A000A03B1A700B46A83B1A700B46B03B1A7042
:1025B0000B46B83B1A700B46C03B1A700B46C83B23
:1025C0001A700B46D03B1A700B46D83B1A700B465C
:1025D000E03B1A700B46E83B1A700B46F03B1A7052
:1025E0000B46F83B1A700302C918203D9CD13846AF
:1025F000F930802102700546083D2A700546103DDD
:102600002A700546183D2A700546203D2A70054669
:10261000283D2A700546303D2A700546383D2A700F
:102620000546403D2A700546483D2A700546503D06
:102630002A700546583D2A700546603D2A700546B9
:10264000683D2A700546703D2A700546783D2A701F
:102650000546803D2A700546883D2A700546903D16
:102660002A700546983D2A700546A03D2A70054609
:10267000A83D2A700546B03D2A700546B83D2A702F
:102680000546C03D2A700546C83D2A700546D03D26
:102690002A700546D83D2A700546E03D2A70054659
:1026A000E83D2A700546F03D2A70C518F8380270DA
:1026B000203928469ED13D46FA3580212A70284689
:1026C0000838027028461038027028461838027000
:1026D00028462038027028462838027028463038AC
:1026E0000270284638380270284640380270284662
:1026F0004838027028465038027028465838027010
:1027000028466038027028466838027028467038BB
:1027100002702846783802702846803802702846B1
:10272000883802702846903802702846983802701F
:102730002846A03802702846A83802702846B038CB
:1027400002702846B83802702846C0380270284601
:10275000C83802702846D03802702846D83802702F
:102760002846E03802702846E83802702846F038DB
:102770000270E818F83D2A70203905469ED13D4682
:10278000FB3580212A702846083802702846103808
:1027900002702846183802702846203802702846F1
:1027A00028380270284630380270284638380270BF
:1027B000284640380270284648380270284650386B
:1027C0000270284658380270284660380270284641
:1027D00068380270284670380270284678380270CF
:1027E000284680380270284688380270284690387B
:1027F00002702846983802702846A0380270284691
:10280000A83802702846B03802702846B8380270DE
:102810002846C03802702846C83802702846D0388A
:1028200002702846D83802702846E03802702846E0
:10283000E83802702846F0380270E818F83D2A702F
:10284000203905469ED13D46FC3580212A70284618
:10285000083802702846103802702846183802706E
:10286000284620380270284628380270284630381A
:1028700002702846383802702846403802702846D0
:10288000483802702846503802702846583802707E
:10289000284660380270284668380270284670382A
:1028A0000270284678380270284680380270284620
:1028B000883802702846903802702846983802708E
:1028C0002846A03802702846A83802702846B0383A
:1028D00002702846B83802702846C0380270284670
:1028E000C83802702846D03802702846D83802709E
:1028F0002846E03802702846E83802702846F0384A
:102900000270E818F83D2A70203905469ED13D46F0
:10291000FD3580212A702846083802702846103874
:10292000027028461838027028462038027028465F
:10293000283802702846303802702846383802702D
:1029400028464038027028464838027028465038D9
:1029500002702846583802702846603802702846AF
:10296000683802702846703802702846783802703D
:1029700028468038027028468838027028469038E9
:1029800002702846983802702846A03802702846FF
:10299000A83802702846B03802702846B83802704D
:1029A0002846C03802702846C83802702846D038F9
:1029B00002702846D83802702846E038027028464F
:1029C000E83802702846F0380270E818F83D2A709E
:1029D000203905469ED13D46FE3580212A70284685
:1029E00008380270284610380270284618380270DD
:1029F0002846203802702846283802702846303889
:102A0000027028463838027028464038027028463E
:102A100048380270284650380270284658380270EC
:102A20002846603802702846683802702846703898
:102A3000027028467838027028468038027028468E
:102A400088380270284690380270284698380270FC
:102A50002846A03802702846A83802702846B038A8
:102A600002702846B83802702846C03802702846DE
:102A7000C83802702846D03802702846D83802700C
:102A80002846E03802702846E83802702846F038B8
:102A90000270E818F83D2A70203905469ED1FF37AC
:102AA00080213A7038460838027038461038027073
:102AB00038461838027038462038027038462838B0
:102AC000027038463038027038463838027038465E
:102AD0004038027038464838027038465038027024
:102AE00038465838027038466038027038466838C0
:102AF00002703846703802703846783802703846AE
:102B00008038027038468838027038469038027033
:102B10003846983802703846A03802703846A838CF
:102B200002703846B03802703846B83802703846FD
:102B3000C03802703846C83802703846D038027043
:102B40003846D83802703846E03802703846E838DF
:102B500002703846F0380270F818F83F3A702039A1
:102B600007469ED100F080F86F4802990160019AF3
:102B700002600660009B236026600660036026609A
:102B8000066023602660066003602660066023609E
:102B9000266006602360266006602360266006606B
:102BA000236026602260216003B0F0BDF0B581B0E3
:102BB000FEF780FCF648203000212A4B5D5C07249C
:102BC000EE08254001221746AF408519203D2E789A
:102BD0003E432E705D186E78F70826401346B340CA
:102BE000C619183E37781F433770AB78DE0823408C
:102BF00017469F408319103B1E783E431E70EB78AA
:102C0000DE08234017469F408319083B1E783E4349
:102C10001E702B79DE08234017469F40835D3B439F
:102C200083556B79DE08234017469F4083191E7A2F
:102C30003E431E72AB79DE08234017469F4083193E
:102C40001E7C3E431E74EB791C40A240DB08C31877
:102C50001C7E14431C76403008318029ADD101B070
:102C6000F0BDC046E8042020F0B585B00120040383
:102C700081030291800501900020C54D2A4E0490E9
:102C80005038C0B2002100F0CBFC019B336004201F
:102C900030603460029A3260314610390C60346022
:102CA00032600C60346032600C60346032600C6002
:102CB000346032600C60346032600C6034603260CA
:102CC0000C60346032600C6008600B603360306010
:102CD000346032600C60346032600C6034603260AA
:102CE0000C6034600A600C60346032600C603460E8
:102CF00032600C60346032600C60346032600C60B2
:102D000008600B60802703952878012100F088FC7B
:102D10007F1E0835002FF7D1039D6D1C0498401CC1
:102D20000828ACD105B0F0BDA0120A40F0B58BB0B8
:102D30000A9103900620082B04460AD05C07D908A4
:102D4000002C00D0491C5C084C43E4B2002C00D19C
:102D500013E1109F203AD1B20091484388490A18E4
:102D6000580801900025039E0293089709E0064643
:102D7000079C049A069D641E521C6D1C002C00D1F9
:102D8000FBE0082B104615D0182B09D0102B0CD0C7
:102D90000C2B00D0F1E00C20009948437B4907E060
:102DA000242000994843774902E0009800017649C1
:102DB00008184019099006950492079407230A9A67
:102DC000104618400125294681400596F0B2C00002
:102DD0006F4C2018D2B2D408065D32460A438E43A7
:102DE000002F114600D03146002F00D01646002299
:102DF000099FBA560992D20700D0314601550A9967
:102E0000491CCAB219402F468F40D408065D31468E
:102E10003943BE43089F002F0A4600D03246002F98
:102E200000D00E460999890700D5324602550A9905
:102E3000891CCAB219402F468F40D408065D31461E
:102E40003943BE43089F002F0A4600D03246002F68
:102E500000D00E460999490700D5324602550A9915
:102E6000C91CCAB219402F468F40D408065D3146AE
:102E70003943BE43089F002F0A4600D03246002F38
:102E800000D00E460999090700D5324602550A9925
:102E9000091DCAB219402F468F40D408065D31463D
:102EA0003943BE43089F002F0A4600D03246002F08
:102EB00000D00E460999C90600D5324602550A9936
:102EC000491DCAB219402F468F40D408065D3146CD
:102ED0003943BE43089F002F0A4600D03246002FD8
:102EE00000D00E460999890600D5324602550A9946
:102EF000891DCAB219402F468F40D408065D31465D
:102F00003943BE43089F002F0A4600D03246002FA7
:102F100000D00E460999490600D5324602550A9955
:102F2000C91D0B409D40C9B2CC08025D1146A943A2
:102F30001543002F0A4600D02A46002F029B059E0B
:102F400000D00D460999002900D42A460255701C6C
:102F5000082B00D10BE7C1B2039A891A019A91425A
:102F6000079C02D10A9A08320A92049A019DA9424A
:102F7000039E00D1FEE60646FCE60BB0F0BDC0465F
:102F8000D463000060700000706A0000FC650000FF
:102F900064002020F0B503AF93B06E46B160F060DE
:102FA000B868306108384142414131600720C04370
:102FB0005900C91D01406846401AB0648546002B7F
:102FC00000D19EE2154601211846B16308407060A9
:102FD000981EB0627D20C0007061581E70620006AD
:102FE0003364326300D188E0FE201946306201402C
:102FF000F16158420024C0B27063214616E0F16AC4
:103000004843FEF789F801462846FDF783FFFEF79F
:1030100031F80A21FDF7CEF83031B06C0155716CF2
:10302000891CF46BA41CF069844268D0FF20716491
:103030008843716B8842B06BF46322D0706A011BC5
:10304000B06A001BC0B2032802D20D4601200AE07C
:10305000FC220D460A4000230120FC4948431B1D69
:10306000DCB29442FAD103221540F46B09D0012D51
:1030700001D10A2104E0022D01D0716900E0642130
:103080004843FEF749F80146356B2846FDF742FFF5
:10309000FDF7F0FF0A21F162FDF78CF83031B06CDA
:1030A0000155B16B0C43706C326A5040C0B2726B08
:1030B00090420846A5D0706A011BB06A001BC0B2DE
:1030C0000328B16101D2012009E0FC220A4000235B
:1030D0000120DE4D68431B1DD9B29142FAD1032174
:1030E000B2690A40356B8CD01146012A87D002297B
:1030F00001D0716984E7642182E700242146706869
:1031000000283AD0FF208843316C4942C9B2884236
:1031100001D1012023E0706A021B03211140F463F6
:10312000B06A001BC0B2032801D2012009E0FC20D4
:10313000024000230120F54D68431B1DDCB2944280
:10314000FAD10029356BF46B09D0012901D10A218C
:1031500004E0022901D0716900E064214843FDF7D1
:10316000DBFF01462846FDF7D5FEFDF783FF0A2168
:10317000FDF720F83031B06C01552846FDF77AFF95
:10318000FDF7C2FF0146284602F07CFE7064306CF9
:10319000002800D1B5E1032102460A40F26204286A
:1031A000716301D2002294E0FC21014031630024CC
:1031B00001252006800E284608D000210120D34A90
:1031C0005043E2B2091DCBB29342F8D121462943C4
:1031D000B1630A21F1634843FDF79EFF0146706C1D
:1031E00002F0F8FDFDF746FFF16BFCF7E3FF306CF2
:1031F00020183031B26C1154B06BC0B2032829468C
:1032000008D300200121F14A5143E2B2001DC3B2AC
:103210009342F8D102202043F06364204843FDF735
:103220007BFF0146706C02F0D5FDFDF723FF0A21FC
:10323000FCF7C0FF306CB26B10183031B26C115417
:10324000FE20F16B08400228284608D0002101200A
:10325000DE4A5043E2B2091DCBB29342F8D1224676
:10326000716B0A43B26371694843FDF755FF01462C
:10327000706C02F0AFFDFDF7FDFE0A21FCF79AFF2E
:10328000306CF26B10183031B26C1154201DF063A9
:103290000020CE4B5D43011DC0B2E2B29042084611
:1032A000F8D12846FDF738FF0146706C02F092FD18
:1032B000FDF7E0FE0A21FCF77DFF306CB26B1018C1
:1032C0003031B26C1154F26B306B8242144600D034
:1032D0006EE7F06A002800D1A5E0531C1946706B18
:1032E0000140F263D0B20328B36301D2012009E0A8
:1032F000FC221A4000230120B44D68431B1DDCB2A0
:103300009442FAD1002909D0012901D10A2104E00F
:10331000022901D0716900E064214843FDF7FCFEF9
:103320000146706C02F056FDFDF7A4FE0A25294601
:10333000FCF740FF306CF36B18183031B26C11544D
:10334000F06A01286FD09C1C2146706B0140B06B65
:10335000C0B2032811D3B162FC223463224000239F
:1033600001209A490446084660431B1DDDB2954280
:10337000F8D1674D6543346BB16A002909D0012942
:1033800001D1284605E0022901D0642000E00A208E
:103390006843FDF7C1FE0146706C02F01BFDFDF7AE
:1033A00069FE0A252946FCF705FF306CB26B101840
:1033B0003031B26C1154F06A0228F06B33D0C11C6A
:1033C000726B0A40E0B2032811D334637263FC20AD
:1033D0000140002201207D4D034628465843121D1E
:1033E000D4B28C42F8D14A4D5D43726B346B002AE3
:1033F00009D0012A01D1284605E0022A01D0642023
:1034000000E00A206843FDF787FE0146706C02F079
:10341000E1FCFDF72FFE0A21FCF7CCFE306C2018F2
:103420003031B26C1154306C00286AD030684000E2
:10343000F968F163316949084218316CF068B26388
:1034400010180022C0B27063154606E01027000075
:10345000521C0025E8B2884253D2D4B2280614D0B8
:103460008C4236D182B0F06B0090B06B6843F1684B
:103470004018C0B272642E22B1683369FFF756FC5F
:10348000726C316C02B06D1C23E0B16C095D3029A7
:10349000316C01D18C42DBD38C421AD1002818D177
:1034A00082B0F06B009072643022F068B5682946F3
:1034B0003369FFF73BFC02B082B0F06B00902E2224
:1034C000706B29463369FFF731FC726C316C02B0C6
:1034D0000225E8B28842BDD2B06C7264025D82B04F
:1034E000F06B0090B06B6843F1684018C0B2B168EF
:1034F0003369FFF71BFC726C316C02B0521C6D1CFF
:10350000A8E7FE1F053EB546F0BDC04610270000E7
:10351000A0860100F0B589B008910790002B52D029
:103520001C4615460E9841080690082800D1891CB3
:1035300005910F9804906042A11E01910026C0B22F
:103540000390224F029517E00121284602F074F9FA
:103550000A21FCF721FE0498009030220A430598C6
:10356000704307994018C0B20899069BFFF7DEFB2D
:10357000761CF0B2A04226D2FF20B04303998842C5
:10358000E2D0F04300190199891BC9B2032901D285
:10359000012108E0FC2202400023012179431B1D88
:1035A000DDB29542FAD103221040029DCDD0012810
:1035B00001D10A2005E0022802D07D20C00000E0F1
:1035C00064204143C1E709B0F0BDC04610270000A8
:1035D000F0B583B00646177838462038C0B25E286A
:1035E0001CD8082B01D05D0800E006250898019042
:1035F000541C029501980090F0B2FAB20D461F4695
:10360000FFF794FB3B462946029D7619601C2778FC
:103610003A46203AD2B25F2A0446EBD303B0F0BD5B
:1036200070B50125AA05234B002901D01A6000E0DE
:103630001A61042119612C031C61AD0346B2002EEE
:1036400001D41D6100E01D601C601C61460601D4B0
:103650001D6100E01D601C601C61860601D41D61B7
:1036600000E01D601C601C61C60601D41D6100E005
:103670001D601C601C61060701D41D6100E01D6017
:103680001C601C61460701D41D6100E01D601C60C8
:103690001C61860701D41D6100E01D601C601C6177
:1036A000C00701D11D6100E01D601C6019601A6037
:1036B00070BDC04690120A4010B50124A0071E49F3
:1036C000FEF76CF81D48011F0A681D4B1340620489
:1036D0009A180A6001681B4A0A4002601A490222CD
:1036E0000A60A10202680A43026022040146083906
:1036F0000B6813430B6027221201C2600022026193
:1037000022020368134303601F22D202036893431B
:10371000032212039A180260E0040C4A136E03435A
:103720001366106A20231843106210681843106053
:1037300008682043086010BDBC7D000008110040EF
:10374000FEFFECFFF8FFE0E0801100402810004091
:1037500080B505480549FEF747F80548016801228C
:103760000A43026080BDC04600800140C47D000065
:103770000091014080B503480021034AFEF778F824
:1037800080BDC04600A04240E47D000080B5FFF748
:10379000F1FF80BD064881214160064A1160016049
:1037A0005167D16604480549016001637047C0460E
:1037B000B88042401C804240A0120A400450600081
:1037C00010B51048002101600320C1430E48024695
:1037D000083A13680B401360026801218A430260B3
:1037E0000A020368934303600A03031F1C6814431F
:1037F0001C60426B1023134343634902026B8A43EC
:10380000026310BD08030B4008010B40084809493A
:103810004160FF210906084A13688B430321890789
:103820005918116000218160072101607047C0466E
:1038300010E000E0FF7C000020ED00E080B500F02B
:103840000DF8FFF7A7FFFFF7BBFFFFF735FFFFF707
:103850009DFFFFF7DBFFFFF77BFF80BD10B5094839
:1038600009494160094A5160094B5960094C61603E
:10387000094901601160196021601020FDF7AEFF59
:1038800010BDC04600080A40030000B100280A40ED
:103890000008004000880140010000267047F0B594
:1038A000002914D000230324E443158825404659F9
:1038B00057882740C4594451C65144196568C619F0
:1038C000776867607560121D9B1C8B42EBD3F0BD5F
:1038D000F0B581B0009316460C4607460588012ACC
:1038E0000CD1002D3DD0201D29460122D2070368AE
:1038F00053400360491E08300029F6D1FF2D0DDD2D
:103900002B48854211DD012001038D4223D0C102E5
:103910008D4212D08002854218D022E03F2D11DC6A
:10392000102D13D0202D08D01BE0012001028D4264
:1039300003D0400285420ED013E03846214600F005
:1039400063F90EE0402D06D0802D0AD1384621467D
:1039500000F030F805E07A6801232046294600F09F
:1039600057FC0098002804D0BA68B9892046FFF7B0
:1039700096FF012E1AD12846FDF7CEFB01467F2087
:10398000C005FDF7C7FA002D10D006462168304665
:1039900002F020FA20600120C007616841403046F3
:1039A00002F018FA606008346D1EEFD101B0F0BD6E
:1039B000FF030000F0B59BB0028893000391C91883
:1039C0001091009040680290D30850080190002B9D
:1039D00000D108E101988000039909180F9110990E
:1039E00008180E9000250D93039C60590790109ABB
:1039F00051590891174602F053F90E9B59191A9123
:103A00004A6814928A681792C96819910F9A5619D0
:103A100071681391B1681691F16818915959129112
:103A200051591191791915914A6804928F680A9732
:103A3000C9680C9160516419E0680B9002F030F98C
:103A4000E060A0680990394602F02AF9A060606839
:103A50000690049F394602F023F96060119812998C
:103A600002F01EF90F9948511398149902F018F9B1
:103A700070601698179902F013F9B06018981999A8
:103A800002F00EF9F0600798089902F0FBF904467D
:103A900005900698394602F0F5F90746029E7159DD
:103AA00020460C46079102F095F904907019089091
:103AB00046683846314602F08DF90146049802F016
:103AC000EFF8109948513846214602F083F9044630
:103AD00005983146069602F07DF90146204602F02F
:103AE000D1F9159948601298119902F0CBF9044662
:103AF00012901498139902F0C5F9074620463146F2
:103B000002F068F904463846079E314602F062F931
:103B10000146204602F0B6F90E99485138460699FA
:103B200002F058F904461298314602F053F9214642
:103B300002F0B6F81A99486009980A9902F0A2F9B9
:103B400004460B980C9902F09DF91290089EB768F4
:103B50003946139702F03EF91190F168149120460E
:103B600002F038F90146119802F08CF9159EF060C8
:103B70002046394602F02EF904461298149F394621
:103B800002F028F90146204602F08AF8B060179842
:103B9000169902F077F9064617901998189902F0CD
:103BA00071F91990394602F015F904463046139F11
:103BB000394602F00FF9214602F072F81A9EF060C1
:103BC0001798149902F006F904461998394602F03C
:103BD00001F90146204602F055F90D9BB060103501
:103BE0005B1E00D0FFE602240398019D2946029A3D
:103BF000234600F00DFB00984268109829462346A2
:103C000000F006FB1BB0F0BDF0B5ADB00D46059061
:103C100001882991480827908700E819C159259102
:103C200004462868249002F03BF82890E9592B912B
:103C300002F036F8E6190494F1592A9102F030F8AE
:103C400028607168219103966868209002F028F836
:103C5000269064682146239402F022F8F11902911B
:103C60004E683146229602F01BF868602498259928
:103C700002F008F92590214602F012F8314602F0D0
:103C800001F92C95E8512098219902F0FBF8249035
:103C90002B9D294602F0F6F82A9E314602F000F8E4
:103CA000049C60602898294602F0ECF8314602F046
:103CB000E9F8E0512698239E314602F0E3F8229D70
:103CC000294602F0DFF8039C60602598314602F037
:103CD000D9F8294601F0E4FFE05124982B9901F02E
:103CE000DFFF2A9902F0CEF8029948600C20279A4B
:103CF0005043229008382B9005984068069038462B
:103D000008382890D100084608382A901001083851
:103D10002790299880080190801E4008219000205B
:103D2000209029901F902C9C29982018249080681E
:103D30001D9012916618B1681C9101F0B1FF23909B
:103D40001397E519A968269101F0AAFF229967182F
:103D5000B968259101F0A4FFF9681891EC681994ED
:103D60001A96F1681791249A9060D668304601F04F
:103D700097FF1E901695E96801F092FF1B97F9686E
:103D800001F08EFF2499C8601D981C9902F07AF802
:103D90002490214601F084FF189F394602F072F802
:103DA00014903046179902F06DF81D90269C21461C
:103DB00002F068F8259D294601F072FF0646239817
:103DC000214602F05FF8294602F05CF817901E9831
:103DD000199C214602F056F8394602F053F8239018
:103DE0002498214602F04EF8394601F059FF199007
:103DF0001D98269901F054FF259902F043F824906C
:103E000006981F99411818912099411815912999E0
:103E100044182198002800D15FE12C9907942A9832
:103E20000C180D941C9628980B180E932B980A18B2
:103E3000109205462B9027980E181196074627904A
:103E400058680B9051680C9101F02AFF0F9061683F
:103E50001E9101F025FF71681D9101F021FF2C9B3F
:103E6000DA5926922A9E9A592592595909910E9A01
:103E70005060289C185908901D4601F011FF0E90C3
:103E8000A95901F00DFFE95901F00AFF2851079DDA
:103E9000AC681C9821460A9401F09CFF0746E9682B
:103EA0000791149E304601F095FF0146384601F017
:103EB000E9FF169DE8603046214601F08BFF07467A
:103EC0001C98079C214601F085FF0146384601F009
:103ED000E7FEA8600898099901F0D4FF05461690FE
:103EE0000B980C9901F0CEFF06461C901E981D9968
:103EF00001F0C8FF01461490284601F0D1FE0546A6
:103F00000C903046259901F0BDFF269901F0C8FEBE
:103F100007462846214601F05DFF064638460A9DC1
:103F2000294601F057FF314601F0BAFE2A992C9A32
:103F300050503846214601F04DFF04460C98294662
:103F400001F048FF0146204601F09CFF0D994860B2
:103F5000159C2569239829460D9501F03BFF0646DF
:103F600061691591179C204601F034FF01463046E7
:103F700001F088FF1A9FF8602046294601F02AFFC9
:103F800006462398159C214601F024FF0146304641
:103F900001F086FEB8600E98259901F073FF26990E
:103FA00001F070FF054623900F981E9901F06AFFFB
:103FB0001D9901F067FF074628460D9D294601F02F
:103FC00009FF06463846214601F004FF314601F05C
:103FD00059FF2B992C9A50500120C107794028464F
:103FE00001F0F8FE05462398214601F0F3FE014654
:103FF000284601F047FF10994860189CA56924984D
:1040000029461E9501F0E6FE0646E1692391199FB7
:10401000384601F0DFFE0146304601F033FF1B9CBD
:10402000E0603846294601F0D5FE06462498239DD7
:10403000294601F0CFFE0146304601F031FEA06076
:104040001498169901F01EFF04462490269825998D
:1040500001F018FF1C9901F015FF0746204629467C
:1040600001F0B8FE044638461E9E314601F0B2FE0D
:10407000214601F015FE279D2C9948513846239979
:1040800001F0A8FE04462498314601F0A3FE014643
:10409000204601F0F7FE11994860289808382890CA
:1040A0002A9808382A902B9808382B9028460838E8
:1040B00027902998083029902098103020901F9838
:1040C00018301F9022980830229012990831139FBF
:1040D00008372198401E219025E6A1682B91304693
:1040E00001F078FE0746E568149C2046294601F059
:1040F00071FE0146384601F0C5FE169FF860204665
:104100002B9901F067FE04463046294601F062FE15
:104110000146204601F0C4FDB860159D2C69239826
:10412000214601F057FE06466D69179F384629461D
:1041300001F050FE0146304601F0A4FE1A9EF060E8
:104140003846214601F046FE04462398294601F0F0
:1041500041FE0146204601F0A3FDB060189DAC6908
:104160002498214601F036FE0646ED69199F38462F
:10417000294601F02FFE0146304601F083FE1B9ECA
:10418000F0603846214601F025FE04462498294671
:1041900001F020FE0146204601F082FDB0600424BB
:1041A0002C98019E3146069A234600F031F8059D71
:1041B0006A6804983146234600F02AF86A68039832
:1041C0003146234600F024F86A68029831462346B7
:1041D00000F01EF82DB0F0BDF0B581B0002A15D06A
:1041E00014460D4606463068014601F0F3FD0746C9
:1041F0007068014601F0EEFD0146384601F050FDC1
:1042000001F038FD01C50836641EECD101B0F0BDE7
:10421000F0B5C7B00293039201900A461B91D008F3
:10422000182308931C46444328230793434330250F
:10423000069545433826059646432196D6001C969A
:10424000C600209606011F96099040011E9000208E
:104250004690019E1D9224942393229520983058D5
:104260003D90F1583C9101F01BFD07463F903059BD
:104270003B90219971583A9101F012FD01463E9010
:10428000384601F00DFD04461E98315837913068CC
:10429000369001F005FD074631901F983058429046
:1042A0007159419101F0FCFC05463846294601F060
:1042B000F7FC0746214601F0F3FC30603846214602
:1042C00001F0E0FD1E99705020983018439042682C
:1042D000359223983018459041683491104601F08A
:1042E000DFFC074639902498301844904268339296
:1042F00021983018409041683291104601F0D0FC6E
:1043000001463890384601F0BDFD074631982946F0
:1043100001F0B8FD0546394601F0C2FC1F99705006
:104320002846394601F0AEFD229970503D983C99DF
:1043300001F0A8FD05463D903B983A9901F0A2FD99
:1043400001463C90284601F09DFD704901F042FD78
:10435000044631903598349901F094FD07463B901E
:104360003398329901F08EFD01463A90384601F0BB
:1043700097FC664901F02EFD054632903698379934
:1043800001F080FD3390214601F08AFC04461F981D
:10439000301836904268359222983018379041682C
:1043A0003491104601F06EFD0746294601F078FC75
:1043B00005462046294601F073FC2099705020469E
:1043C000294601F05FFD219970503398319901F031
:1043D00059FD04463846329901F054FD0546204601
:1043E000294601F05DFC239970502046294601F0D2
:1043F00049FD249970503998389901F051FC0446D0
:104400001E9830183390416839917068389001F0E7
:1044100047FC054632903598349901F041FC074637
:104420002846394601F03CFC0546214601F038FC9F
:1044300070602846214601F025FD339948603F9879
:104440003E9901F01FFD05463298394601F01AFDEC
:104450000446294601F016FD369948602846214653
:1044600001F01EFC379948603D983C9901F018FC1A
:10447000264C214601F0AEFC05463F903B983A9908
:1044800001F000FD214601F0A5FC07463E90429850
:10449000419901F0F7FC4290294601F001FC0446E5
:1044A0003898399901F0EEFC0546394601F0F8FBE1
:1044B0000746214601F0E6FC43994860204639460C
:1044C00001F0EEFB4099486042983F9901F0DAFC18
:1044D000044628463E9901F0D5FC0546214601F0E8
:1044E000D1FC459948602046249C2946229D01F034
:1044F000D7FB239B1D9A1B99449F78601C98361804
:10450000469880184690884202D2A7E6F304353FC9
:10451000402A00D282E2029880B204900026012153
:10452000019A0B920C910498361805987043039FDA
:104530003B581A93069971437B581993079A724313
:10454000BB58189373014693FC581794089C744306
:104550003D59169535017B5915930A96F600BB59BE
:104560001493001D38581390081D38581290101DD0
:10457000385811904698001D38581090201D385812
:104580000F90281D38580E90301D38580D900B99FB
:104590000C9A40924691209808184390C2683A922B
:1045A000239808184490C1683991104601F078FBAF
:1045B00004462D904698249940184590C268379239
:1045C000469821994018C168389106463F90104698
:1045D00001F066FB01462C90204601F061FB074686
:1045E00046981F994518429546981E994018419043
:1045F000C1683E914698C0683D9001F051FB044669
:104600002B90EA683C92469822994518E9682E95C5
:104610003B91104601F044FB01462A90204601F0F0
:104620003FFB2590394601F03BFB4699C860439813
:104630008068329044998968319101F031FB0446D9
:104640002990459880683090B1682F9101F028FB3F
:1046500001462890204601F023FB044641988168DA
:10466000349146988068339001F01AFB06462790F3
:10467000429880683690A968359101F011FB014697
:104680002690304601F00CFB0546214601F008FB60
:10469000469988602846214601F0F4FB0446259897
:1046A000394601F0EFFB01462590179E304601F098
:1046B00091FB0546109F3846214601F08BFB0146D1
:1046C000284601F0DFFB419DE8603046214601F0BD
:1046D00081FB04463846259901F07CFB01462046C3
:1046E00001F0DEFAA8602998289901F0CBFB054675
:1046F00029902D982C9901F0C5FB044641902798EC
:10470000269901F0BFFB2D90214601F0C9FA04461D
:104710002B982A9901F0B6FB2C90294601F0B2FBA8
:1047200001462B90159E304601F054FB05460E9F26
:104730003846214601F04EFB0146284601F0A2FB17
:10474000429DE8603046214601F044FB044638466D
:104750002B9901F03FFB214601F0A2FAA8602D98A9
:10476000419901F08FFB044629982C9901F098FAA1
:1047700001464290199F384601F02CFB0646129DD7
:104780002846214601F026FB0146304601F07AFB1F
:104790002E9EF0603846214601F01CFB0446284658
:1047A000429901F017FB214601F07AFAB060329885
:1047B000319901F067FB0446329030982F9901F04F
:1047C00061FB01463190204601F05CFB94490C46A8
:1047D00001F000FB074642903A98399901F052FBEC
:1047E00005463798389901F04DFB06462846314674
:1047F00001F056FA214601F0EDFA04463A9033985A
:10480000349901F03FFB4190394601F049FA0746DF
:1048100037903C983B9901F035FB3C90214601F0E4
:104820003FFA01463490384601F03AFA3390329814
:10483000319901F035FA7A4F394601F0CBFA044646
:104840003B902846314601F01DFB394601F0C2FA83
:10485000054638903698359901F014FB3990214679
:1048600001F01EFA044636903D983E9901F00AFB8D
:104870003E90294601F014FA3D90214601F002FBDA
:1048800001463590149C204601F0A4FA06460D9D81
:104890002846339F394601F09DFA0146304601F023
:1048A000F1FA439EF0602046394601F093FA07463C
:1048B0002846359901F08EFA0146384601F0F0F9A4
:1048C000B0603798349901F0DDFA06463790369893
:1048D0003D9901F0E5F9014643901A9F384601F0F1
:1048E00079FA0546139C2046314601F073FA0146D9
:1048F000284601F0C7FA3F9EF0603846379901F02C
:1049000069FA05462046439901F064FA01462846B3
:1049100001F0C6F9B0604198429901F0B3FA04463B
:1049200043903C983A9901F0ADFA014642902046F6
:1049300001F0B6F9044639983B9901F0A3FA05460F
:104940003F903E98389901F09DFA4190294601F038
:1049500099FA01463E90189F384601F03BFA064608
:10496000119D2846214601F035FA0146304601F0F6
:1049700089FA449EF0603846214601F02BFA04463D
:1049800028463E9901F026FA0146204601F088F9B2
:10499000B0604398429901F075FA04463F984199F6
:1049A00001F07EF901464490169F384601F012FA54
:1049B00006460F9D2846214601F00CFA0146304676
:1049C00001F060FA459EF0603846214601F002FA97
:1049D00004462846449901F0FDF90146204601F0BD
:1049E0005FF9409A4699B0601C9809181D981218F2
:1049F0001B98824200D2CCE50B9A08320C99491CD4
:104A0000099881420A9E00D28BE50298C00002906C
:104A10001D983F28099A01D9FFF701FC47B0F0BD66
:104A2000F304353FB0B57D21090241431E480368B8
:104A3000262206E0E41A051F2D686419A2188A428E
:104A400010D21C460368A34208D10368A34205D1D3
:104A50000368A34202D10368A342F3D09C42E9D980
:104A6000E41AEBE7B0BDC046B0B50F490B68400192
:104A7000262206E0E41A0D1F2D686419A21882424E
:104A800010D21C460B68A34208D10B68A34205D183
:104A90000B68A34202D10B68A342F3D09C42E9D930
:104AA000E41AEBE7B0BDC04618E000E0F0B595B001
:104AB000049308921190103001260025129503E00E
:104AC0001290761C1498103014900C380768284601
:104AD000394600F0E1FF04462846394600F0DCFF85
:104AE0000028139600D1129E002C00D12F46149D51
:104AF0002846083804683846214600F0CDFF0028D3
:104B000001D01398461C3846214600F0C5FF002806
:104B100000D13C46281F07682046394600F0BCFFFC
:104B2000002802D11296139902E01399881C129062
:104B3000CE1C802E18D02046394600F0ADFF00284C
:104B400000D127462C683846214600F0A5FF0028F2
:104B5000254600D13D463846214600F09DFF0028FD
:104B60003046ADD11298ABE70498002800D1E4E0BC
:104B7000032102460A4003928008029100D1E0E03E
:104B8000C943484305900C20129D6843021F031D32
:104B900028010790A800041F14940690001D13908C
:104BA0001295E800041F1094001D0F9000270424A4
:104BB0000E9401910D913C46089D23E011980068E8
:104BC000089E0599099BE86007980D9C24180D9490
:104BD0000E9C24180E94069C0B9F3F1B149C2418BB
:104BE0001494139C24181394109C241810940F9C54
:104BF00024180F9412181B180A9C241F1035A14268
:104C000000D195E0002F0C9209930B970A941ED0C7
:104C1000119E0D9837183058014601F0DBF8044614
:104C20007868014601F0D6F8214601F039F80446CB
:104C30000E983058129E014601F0CCF8214601F042
:104C40002FF8BC49FCF766F901F014F802E011985E
:104C50000068129E2860002E1ED0119E14983718EE
:104C60003058014601F0B6F804467868014601F074
:104C7000B1F8214601F014F8044613983058129EFA
:104C8000014601F0A7F8214601F00AF8A949FCF70E
:104C900041F900F0EFFF01E0119800686860002E14
:104CA0001ED0119E109837183058014601F092F826
:104CB00004467868014601F08DF8214600F0F0FFC7
:104CC00004460F983058129E014601F083F82146A1
:104CD00000F0E6FF9749FCF71DF900F0CBFF01E07B
:104CE000119800680C9AA860002E00D166E7119E0A
:104CF000B718B058014601F06DF8044678680146CF
:104D000001F068F8214600F0CBFF0446099FF059F6
:104D1000014601F05FF8214600F0C2FF8549FCF72B
:104D2000F9F800F0A7FF3B460C9A089E05994AE760
:104D30000198C51C6543374605E000200146089FE1
:104D4000E7E00025089F129E0398002800D180E02C
:104D5000304668431FD08700119CE619301F006859
:104D6000014601F037F81490E059089F014601F020
:104D700031F8149900F094FF04467068129E0146C1
:104D800001F028F8214600F08BFF6A49FCF7C2F8D1
:104D900000F070FF01E011980068A90078500398B6
:104DA000012856D0691C002E23D030464843860087
:104DB000119CA719381F00681491014601F00AF8E8
:104DC0001390A059129E014601F004F8139900F0C7
:104DD00067FF04467868089F014600F0FBFF214604
:104DE00000F05EFF5349FCF795F800F043FF14997B
:104DF00001E011980068890078500398022828D0B3
:104E0000A91C002E21D04E43B700119DEE19301F72
:104E100000681491014600F0DDFF0446E859089F40
:104E2000014600F0D7FF214600F03AFF04467068C3
:104E3000014600F0CFFF214600F032FF3D49FCF76C
:104E400069F800F017FF149901E0119800688900D3
:104E500078500020049A032A01465AD3971E3E46F2
:104E600002990E40D01E032802D2022000242CE01A
:104E700014968F43089E0C3600242546301F006888
:104E8000014600F0A7FF214600F00AFF0446306803
:104E9000014600F09FFF214600F002FF04467068C3
:104EA000014600F097FF214600F0FAFE0446B06884
:104EB000014600F08FFF214600F0F2FE0446103656
:104EC0002D1DAF42DAD1A81C149E002E089F1DD0C4
:104ED00085007859014600F07DFF214600F0E0FE94
:104EE0000446012E12D0ED196868014600F072FFE9
:104EF000214600F0D5FE0446022E07D0A8680146E0
:104F000000F068FF214600F0CBFE04462046FBF788
:104F1000D7FF00F08BFE04460D467868FBF7D0FF04
:104F200002460B4620462946FBF720FCFBF734FAE5
:104F300015B0F0BD000040408CB0FEF77FFCFCF7E0
:104F4000E3FFFCF7B7FC0125280209907D200190C2
:104F5000C00004900A9554E0ED4C20610B9E666100
:104F60003846FFF781FD089A10680A9908431060D7
:104F7000E84F3E70FEF70AFC2068E74908402060D1
:104F8000E648079B0360BFF34F8FBFF36F8FE44981
:104F90000868A8430860E3484860E34888600698CA
:104FA000C860086828430860E048036020680999E1
:104FB000084320603878002800D168E2DC4D6C6836
:104FC000DC48046003986860A8682146FBF7A2FFEC
:104FD000A860E8682146FBF79DFFE8602869214644
:104FE000FBF798FF286168692146FBF793FF68612A
:104FF000D1480368D1480068291DCB4A00F034FB32
:105000000A9DCF4CCF4820607F20C105CE48039138
:1050100001600498F730CD490860099FF43738469D
:10502000FFF722FDCA4908682843086005973846FB
:10503000FFF71AFDC74E3046FFF716FDB448071FAD
:105040003868A843386025683046FFF70DFD2846CC
:10505000FBF736FF02460B4600263046BE49FBF7FB
:1050600085FBFBF7A7FD0224022800D82046A84DA7
:1050700028616E61B748FFF7F7FC38680A99084362
:1050800008973860A34F3E70FEF780FB2868A2495E
:10509000084028601022A1480260BFF34F8FBFF381
:1050A0006F8F9F490868A04308609E4848609E48EB
:1050B000886084200690C8600868204308609B4888
:1050C0000792026028680999084328603878002808
:1050D0000DD120BF3878002809D120BF38780028AA
:1050E00005D120BF3878002801D120BFEEE79B48CA
:1050F00031468D4F0A9C03E010366202964241D041
:10510000BA5B904200D9B85BBA5B914200D2B95BFE
:10511000BA195388984200D950885388994200D2CE
:1051200051889388984200D990889388994200D2F8
:105130009188D388984200D9D088D388994200D2E8
:10514000D1881389984200D910891389994200D2D5
:1051500011895389984200D950895389994200D2C4
:1051600051899389984200D990899389994200D2B4
:105170009189D389984200D9D089D3899942BBD2E9
:10518000D189B9E7081AFBF76CFDF14AF14BFBF73F
:1051900073FD00220B92F04BFBF76EFDFBF7FCF862
:1051A0000546EE480560E74E3068FBF789FEEC4A9D
:1051B000EC4BFBF761FD044602912846FBF780FEAD
:1051C00002460B4620460299FBF7D0FAFBF7E4F8BB
:1051D000306000F06DFCFBF773FEE34AE34BFBF736
:1051E0004BFDE34AE34BFBF791FAFBF7E3FCE249A3
:1051F0000840CE490860059C2046FFF735FCCA49A7
:1052000008680A9A104308602046FFF72DFC0498AE
:10521000FFF72AFCCD4C0B982070FEF7B7FAC14A75
:105220001068C74908401060C448079B0360BFF37B
:105230004F8FBFF36F8FBE4908680225A8430860EF
:10524000BC4848608F600698C86008680595284388
:105250000860B94803601068099908431060207815
:1052600000280DD120BF2078002809D120BF207848
:10527000002805D120BF2078002801D120BFEEE70B
:1052800000F08AF9BD480B9C0460BD480460F54FEE
:105290001037042601E01037361D3D460C3D2968C5
:1052A000204600F0D6FB002806D1F11EB3480B9132
:1052B00001602C68B24804603D46083D29682046DC
:1052C00000F0C7FB002806D1B11EAC480B9101606D
:1052D0002C68AB4804603D1F2968204600F0B9FBEC
:1052E000002806D1711EA5480B9101602C68A448C6
:1052F0000460802E34D03968204600F0AAFB0028D4
:10530000C9D19E4806603C689D4804600B96C2E780
:10531000041100409C132020FFFEFFFF80E100E00D
:1053200000B24240606155408C11202000E100E055
:1053300068052020A413202088112020AC132020F1
:105340006000202000007A48A01320200092014035
:10535000009101401027000080847E41FFFF000083
:105360000B98FBF7D1FE0146BC48006800F032FD07
:10537000844908608321C90500F02CFD0446B64825
:105380000460089A10680A9988431060644D2846A2
:10539000FFF76AFB2046FBF793FD02460B46002011
:1053A0000B906949FBF7E2F9FBF704FC022800D8EF
:1053B00005985C4E30610B9F77612846FFF754FBE0
:1053C000089A10680A9908431060604C2770FEF72D
:1053D000DDF930685A49084030605848079A026041
:1053E000BFF34F8FBFF36F8F51490868059B9843F8
:1053F000086050484860954888600698C86008680A
:10540000184308604C4802603068099908433060CE
:10541000207800280DD120BF2078002809D120BF96
:105420002078002805D120BF2078002801D120BF96
:10543000EEE700F0B1F806238A480999524AFFF7CF
:1054400035FB524908604F4806683046F34C214608
:1054500000F00AFB002813D03046214600F00FFB75
:10546000002829D13046EE4900F0FEFA002823D169
:105470008720C105304600F0ADFC1F21490630E011
:105480008720C105304600F0A5FC019928E03A4686
:1054900020BF1078002800D090E520BF10780028A9
:1054A00000D08BE520BF1078002800D086E520BF13
:1054B00010780028ECD081E53046D94900F0DFFAB9
:1054C0000028334D10D13046324900F0CDFA002883
:1054D0002F4D09D18720C105304600F07BFC7B2190
:1054E000C90500F077FC05465B480560089A10681E
:1054F0000A99884310600A4F3846FFF7B5FA2846E4
:10550000FBF7DEFC02460B460B980F49FBF72EF922
:10551000FBF750FB0225022800D91DE528461BE5B4
:10552000102700000411004000910140009201404A
:1055300000B242406061554000E100E080E100E0DF
:10554000FFFEFFFFA013202080847E419C132020BB
:105550006666666666660A400000303FE404202006
:105560009A9999999999E93F333333333343724088
:10557000CDCCCCCCCC7E9340FF0F0000800520200A
:10558000A41320208811202068052020AC1320209F
:105590000050C3490050C347F0B581B02B4D0027E0
:1055A0003E462B4884192888FBF7B6FD60602848E2
:1055B00087516888FBF7B0FDE060A760A888FBF71B
:1055C000ABFD60612761E888FBF7A6FDE061A7619C
:1055D0002889FBF7A1FD606227626889FBF79CFDC3
:1055E000E062A762A889FBF797FD60632763E889FB
:1055F000FBF792FDE063A763403610350124E0021B
:105600008642CED1134805682846FBF785FD014642
:10561000114807683846FBF77DFC06467720C10530
:10562000384600F0D7FB002D00D030460B4908600B
:105630000B48074D002229462346FEF749F922026E
:1056400008492846FEF7C8FD01B0F0BD8C112020A6
:1056500088052020A8132020600020208405202019
:10566000C4630000880D2020F0B58BB01E461446A0
:105670000A9105906949184600F0F6F9054668490F
:10568000304600F0FCF9202610270028039600D1B0
:10569000BAE0002D00D1BBE0002D00D14026FCF780
:1056A00009F920463146FDF781FAFDF7DDFA7D2044
:1056B0000490C000FFF7B6F9FCF7FCF8012600964D
:1056C000002558A20824284629462346FDF780FFD6
:1056D0000094019628460695214632463346FDF74A
:1056E00019FF00960A200790504A21462346FDF7ED
:1056F0006FFF0A9802680094019623200990062300
:1057000008932146FDF746FC0094019602222846A4
:1057100039463346FDF7FEFE0096079D284639467A
:10572000424A2346FDF754FF0A98426800940196C6
:1057300009983946089BFDF72DFC0094019618271F
:105740000322069839463346FDF7E4FE00962846C4
:105750003946364A2346FDF73BFF0A988268009493
:10576000019609983946089BFDF714FC00940196B0
:105770000422069D2846039F39463346FDF7CAFE9C
:10578000009607983946294A2346FDF721FF0A98D3
:10579000C2680094019609983946089BFDF7FAFB08
:1057A0000094019628270522284639463346FDF7FE
:1057B000B1FE0096079839461C4A2346FDF708FFBC
:1057C0000A9802690094019609983946089F3B4659
:1057D000FDF7E0FB0096302115A228462346FDF791
:1057E000F7FE0094019607203821059A3B46FDF705
:1057F000D1FB04988000FFF715F9FDF735FA0D4845
:10580000FFF710F90BB0F0BD3E46002D00D043E786
:105810003E46002D00D141E741E7C04600409C468E
:1058200000401C476861726D6F6E7900FC7D00005E
:1058300074686400B80B000043088B421AD300223E
:1058400003098B4279D3030A8B425ED3030B8B424D
:1058500042D3030C8B4227D30902FF2212BA030C56
:105860008B4202D31212090203D0030B8B4233D3B3
:105870001AE0D3E0411A8041401C704703460B43B5
:1058800071D443088B42F5D3002203098B4254D3D1
:10589000030A8B4239D3030B8B421DD3030C8B427B
:1058A00002D394466EE0090AC30B8B4201D3CB03AB
:1058B000C01A5241830B8B4201D38B03C01A524151
:1058C000430B8B4201D34B03C01A5241030B8B4253
:1058D00001D30B03C01A5241C30A8B4201D3CB023E
:1058E000C01A5241830A8B4201D38B02C01A524123
:1058F000430A8B4201D34B02C01A5241030A8B4226
:1059000001D30B02C01A5241CDD2C3098B4201D33D
:10591000CB01C01A524183098B4201D38B01C01ABB
:10592000524143098B4201D34B01C01A5241030932
:105930008B4201D30B01C01A5241C3088B4201D3E1
:10594000CB00C01A524183088B4201D38B00C01A8E
:10595000524143088B4201D34B00C01A5241411AB5
:10596000524110007047CA0F00D04942031000D3C3
:105970004042534000229C4603098B422DD3030A28
:105980008B4212D38901FC2212BA030A8B420CD338
:10599000890192118B4208D3890192118B4204D361
:1059A000890137D0921100E08909C3098B4201D3E4
:1059B000CB01C01A524183098B4201D38B01C01A1B
:1059C000524143098B4201D34B01C01A5241030992
:1059D0008B4201D30B01C01A5241C3088B4201D341
:1059E000CB00C01A524183088B4201D38B00C01AEE
:1059F0005241D9D243088B4201D34B00C01A5241C5
:105A0000411A00D201465241104663465B1000D352
:105A10004042704763465B1000D3404201B500210D
:105A2000004201D0C9430846C046C04602BD10B579
:105A30007F200021C005FBF76DFA10BD10B50121D4
:105A4000FBF7F8FB10BD10B500210846FBF762FA22
:105A500010BD10B500F06AF9EFF30080800001D5A9
:105A6000012010BD002010BD10B500F05FF9EFF36C
:105A700000804000800F012800D0002010BD10B52C
:105A800000F07EF9EFF300804000800F012801D084
:105A9000012010BD002010BD10B500F071F9EFF32A
:105AA0000080800001D4012010BD002010BD000046
:105AB000F8B50121C9057F220026411A120691423C
:105AC0007BD20121C9044118CA15012341021B07D9
:105AD000C9184D0F7F217F3A2B05C905B6185C18F0
